{
  "contractName": "Institution",
  "abi": [
    {
      "inputs": [],
      "payable": false,
      "stateMutability": "nonpayable",
      "type": "constructor"
    },
    {
      "anonymous": false,
      "inputs": [
        {
          "indexed": false,
          "internalType": "address",
          "name": "_owner",
          "type": "address"
        },
        {
          "indexed": false,
          "internalType": "uint64",
          "name": "_index",
          "type": "uint64"
        },
        {
          "indexed": false,
          "internalType": "bytes32",
          "name": "_description",
          "type": "bytes32"
        },
        {
          "indexed": false,
          "internalType": "uint64",
          "name": "expires_unixtime",
          "type": "uint64"
        }
      ],
      "name": "newVoucher",
      "type": "event"
    },
    {
      "anonymous": false,
      "inputs": [
        {
          "indexed": false,
          "internalType": "address",
          "name": "_owner",
          "type": "address"
        },
        {
          "indexed": false,
          "internalType": "uint64",
          "name": "_index",
          "type": "uint64"
        },
        {
          "indexed": false,
          "internalType": "bytes32",
          "name": "_description",
          "type": "bytes32"
        }
      ],
      "name": "redeemVoucher",
      "type": "event"
    },
    {
      "constant": true,
      "inputs": [],
      "name": "institution",
      "outputs": [
        {
          "internalType": "address",
          "name": "",
          "type": "address"
        }
      ],
      "payable": false,
      "stateMutability": "view",
      "type": "function"
    },
    {
      "constant": false,
      "inputs": [
        {
          "internalType": "address",
          "name": "_owner",
          "type": "address"
        },
        {
          "internalType": "bytes32",
          "name": "_description",
          "type": "bytes32"
        },
        {
          "internalType": "uint64",
          "name": "_expires_in_Days",
          "type": "uint64"
        }
      ],
      "name": "addVoucher",
      "outputs": [],
      "payable": false,
      "stateMutability": "nonpayable",
      "type": "function"
    },
    {
      "constant": false,
      "inputs": [
        {
          "internalType": "uint64",
          "name": "_index",
          "type": "uint64"
        }
      ],
      "name": "redeem",
      "outputs": [],
      "payable": false,
      "stateMutability": "nonpayable",
      "type": "function"
    }
  ],
  "bytecode": "0x608060405234801561001057600080fd5b50336000806101000a81548173ffffffffffffffffffffffffffffffffffffffff021916908373ffffffffffffffffffffffffffffffffffffffff160217905550610668806100606000396000f3fe608060405234801561001057600080fd5b50600436106100415760003560e01c80633a4db83814610046578063bd7fc4121461007e578063d1384eb6146100e0575b600080fd5b61007c6004803603602081101561005c57600080fd5b81019080803567ffffffffffffffff16906020019092919050505061012a565b005b6100de6004803603606081101561009457600080fd5b81019080803573ffffffffffffffffffffffffffffffffffffffff16906020019092919080359060200190929190803567ffffffffffffffff16906020019092919050505061038c565b005b6100e86105de565b604051808273ffffffffffffffffffffffffffffffffffffffff1673ffffffffffffffffffffffffffffffffffffffff16815260200191505060405180910390f35b8067ffffffffffffffff16600160003373ffffffffffffffffffffffffffffffffffffffff1673ffffffffffffffffffffffffffffffffffffffff168152602001908152602001600020805490501161018257600080fd5b61018a610603565b600160003373ffffffffffffffffffffffffffffffffffffffff1673ffffffffffffffffffffffffffffffffffffffff1681526020019081526020016000208267ffffffffffffffff16815481106101de57fe5b90600052602060002090600202016040518060600160405290816000820160009054906101000a900467ffffffffffffffff1667ffffffffffffffff1667ffffffffffffffff1681526020016000820160089054906101000a900460ff16151515158152602001600182015481525050905060001515816020015115151461026557600080fd5b42816000015167ffffffffffffffff16101561028057600080fd5b60018060003373ffffffffffffffffffffffffffffffffffffffff1673ffffffffffffffffffffffffffffffffffffffff1681526020019081526020016000208367ffffffffffffffff16815481106102d557fe5b906000526020600020906002020160000160086101000a81548160ff0219169083151502179055507fa6c82d83614793b1840c91aaf3d60b091437be5c718b95862c66b847674616b433838360400151604051808473ffffffffffffffffffffffffffffffffffffffff1673ffffffffffffffffffffffffffffffffffffffff1681526020018367ffffffffffffffff1667ffffffffffffffff168152602001828152602001935050505060405180910390a15050565b6000809054906101000a900473ffffffffffffffffffffffffffffffffffffffff1673ffffffffffffffffffffffffffffffffffffffff163373ffffffffffffffffffffffffffffffffffffffff16146103e557600080fd5b6103ed610603565b6201518082024201816000019067ffffffffffffffff16908167ffffffffffffffff1681525050828160400181815250506000600160008673ffffffffffffffffffffffffffffffffffffffff1673ffffffffffffffffffffffffffffffffffffffff168152602001908152602001600020805490509050600160008673ffffffffffffffffffffffffffffffffffffffff1673ffffffffffffffffffffffffffffffffffffffff168152602001908152602001600020829080600181540180825580915050906001820390600052602060002090600202016000909192909190915060008201518160000160006101000a81548167ffffffffffffffff021916908367ffffffffffffffff16021790555060208201518160000160086101000a81548160ff021916908315150217905550604082015181600101555050507f25613459597593412ee9052967f612669d1d178a3801346307f17ec9864782c4858284604001518560000151604051808573ffffffffffffffffffffffffffffffffffffffff1673ffffffffffffffffffffffffffffffffffffffff1681526020018467ffffffffffffffff1667ffffffffffffffff1681526020018381526020018267ffffffffffffffff1667ffffffffffffffff16815260200194505050505060405180910390a15050505050565b6000809054906101000a900473ffffffffffffffffffffffffffffffffffffffff1681565b6040518060600160405280600067ffffffffffffffff16815260200160001515815260200160008019168152509056fea265627a7a72315820d46b5183f11c263766570233ca9dd5d7795a597cefe8049c1dfca45531b6a3a564736f6c63430005100032",
  "source": "pragma solidity ^0.5.16;\r\n/// @title SmartContract zum Verwalten von Gutscheinen\r\ncontract Institution {\r\n\r\n    struct Voucher {\r\n        uint64 expires_unixtime;\r\n        bool used;\r\n        bytes32 description;\r\n    }\r\n\r\n    address public institution;\r\n    mapping(address => Voucher[]) voucher;\r\n\r\n    event newVoucher(address _owner, uint64 _index, bytes32 _description, uint64 expires_unixtime);\r\n    event redeemVoucher(address _owner, uint64 _index, bytes32 _description);\r\n\r\n    constructor() public{\r\n        institution = msg.sender;\r\n    }\r\n\r\n    /// @notice fuegt neuen Gutschein hinzu\r\n    /// @notice das Ablaufdatum wird in Tagen angegeben, Schalttage sind selber zu berechnen\r\n    /// @param _owner ethereum address des Gutschein Besitzers\r\n    /// @param _description Beschreibung des Gutscheins in hex\r\n    /// @param _expires_in_Days Zeit in Tagen bis der Gutschein ablaeuft\r\n    function addVoucher(address _owner, bytes32 _description, uint64 _expires_in_Days) public {\r\n        require(msg.sender == institution);\r\n        Voucher memory v;\r\n\r\n        v.expires_unixtime = uint64(now) + (_expires_in_Days * 1 days);\r\n        v.description = _description;\r\n        uint64 index = uint64(voucher[_owner].length);\r\n        voucher[_owner].push(v);\r\n\r\n        emit newVoucher(_owner, index, v.description, v.expires_unixtime);\r\n    }\r\n\r\n    /// @notice Funktion zum einloesen des Gutscheins\r\n    /// @notice nur der Besitzer des Gutscheins kann diesen einloesen\r\n    /// @param _index index des Gutscheins der eingeloest werden soll\r\n    function redeem(uint64 _index) public {\r\n        require(voucher[msg.sender].length > _index);\r\n        Voucher memory v = voucher[msg.sender][_index];\r\n        require(v.used == false);\r\n        require(v.expires_unixtime >= block.timestamp);\r\n\r\n        voucher[msg.sender][_index].used = true;\r\n\r\n        emit redeemVoucher(msg.sender, _index, v.description);\r\n    }\r\n}\r\n",
  "sourcePath": "C:\\Users\\TimoK\\PycharmProjects\\Backend\\backend\\smart_contracts\\contracts\\Voucher.sol",
  "compiler": {
    "name": "solc",
    "version": "0.5.16+commit.9c3226ce.Emscripten.clang"
  },
  "schemaVersion": "3.2.0",
  "updatedAt": "2020-07-20T11:01:47.957Z",
  "devdoc": {
    "methods": {
      "addVoucher(address,bytes32,uint64)": {
        "params": {
          "_description": "Beschreibung des Gutscheins in hex",
          "_expires_in_Days": "Zeit in Tagen bis der Gutschein ablaeuft",
          "_owner": "ethereum address des Gutschein Besitzers"
        }
      },
      "redeem(uint64)": {
        "params": {
          "_index": "index des Gutscheins der eingeloest werden soll"
        }
      }
    },
    "title": "SmartContract zum Verwalten von Gutscheinen"
  },
  "userdoc": {
    "methods": {
      "addVoucher(address,bytes32,uint64)": {
        "notice": "fuegt neuen Gutschein hinzudas Ablaufdatum wird in Tagen angegeben, Schalttage sind selber zu berechnen"
      },
      "redeem(uint64)": {
        "notice": "Funktion zum einloesen des Gutscheinsnur der Besitzer des Gutscheins kann diesen einloesen"
      }
    }
  }
}