{
  "contractName": "Institution",
  "abi": [
    {
      "inputs": [
        {
          "internalType": "address",
          "name": "_institution",
          "type": "address"
        },
        {
          "internalType": "address",
          "name": "_admin",
          "type": "address"
        }
      ],
      "payable": false,
      "stateMutability": "nonpayable",
      "type": "constructor"
    },
    {
      "anonymous": false,
      "inputs": [
        {
          "indexed": false,
          "internalType": "address",
          "name": "_owner",
          "type": "address"
        },
        {
          "indexed": false,
          "internalType": "uint64",
          "name": "_index",
          "type": "uint64"
        },
        {
          "indexed": false,
          "internalType": "bytes32",
          "name": "_description",
          "type": "bytes32"
        },
        {
          "indexed": false,
          "internalType": "uint64",
          "name": "expires_unixtime",
          "type": "uint64"
        }
      ],
      "name": "newVoucher",
      "type": "event"
    },
    {
      "anonymous": false,
      "inputs": [
        {
          "indexed": false,
          "internalType": "address",
          "name": "_owner",
          "type": "address"
        },
        {
          "indexed": false,
          "internalType": "uint64",
          "name": "_index",
          "type": "uint64"
        },
        {
          "indexed": false,
          "internalType": "bytes32",
          "name": "_description",
          "type": "bytes32"
        }
      ],
      "name": "redeemVoucher",
      "type": "event"
    },
    {
      "constant": true,
      "inputs": [],
      "name": "institution",
      "outputs": [
        {
          "internalType": "address",
          "name": "",
          "type": "address"
        }
      ],
      "payable": false,
      "stateMutability": "view",
      "type": "function"
    },
    {
      "constant": false,
      "inputs": [
        {
          "internalType": "address",
          "name": "_owner",
          "type": "address"
        },
        {
          "internalType": "bytes32",
          "name": "_description",
          "type": "bytes32"
        },
        {
          "internalType": "uint64",
          "name": "_expires_in_Days",
          "type": "uint64"
        }
      ],
      "name": "addVoucher",
      "outputs": [],
      "payable": false,
      "stateMutability": "nonpayable",
      "type": "function"
    },
    {
      "constant": false,
      "inputs": [
        {
          "internalType": "uint64",
          "name": "_index",
          "type": "uint64"
        }
      ],
      "name": "redeem",
      "outputs": [],
      "payable": false,
      "stateMutability": "nonpayable",
      "type": "function"
    }
  ],
  "bytecode": "0x608060405234801561001057600080fd5b506040516107a13803806107a18339818101604052604081101561003357600080fd5b810190808051906020019092919080519060200190929190505050816000806101000a81548173ffffffffffffffffffffffffffffffffffffffff021916908373ffffffffffffffffffffffffffffffffffffffff16021790555080600160006101000a81548173ffffffffffffffffffffffffffffffffffffffff021916908373ffffffffffffffffffffffffffffffffffffffff16021790555050506106c1806100e06000396000f3fe608060405234801561001057600080fd5b50600436106100415760003560e01c80633a4db83814610046578063bd7fc4121461007e578063d1384eb6146100e0575b600080fd5b61007c6004803603602081101561005c57600080fd5b81019080803567ffffffffffffffff16906020019092919050505061012a565b005b6100de6004803603606081101561009457600080fd5b81019080803573ffffffffffffffffffffffffffffffffffffffff16906020019092919080359060200190929190803567ffffffffffffffff16906020019092919050505061038d565b005b6100e8610637565b604051808273ffffffffffffffffffffffffffffffffffffffff1673ffffffffffffffffffffffffffffffffffffffff16815260200191505060405180910390f35b8067ffffffffffffffff16600260003373ffffffffffffffffffffffffffffffffffffffff1673ffffffffffffffffffffffffffffffffffffffff168152602001908152602001600020805490501161018257600080fd5b61018a61065c565b600260003373ffffffffffffffffffffffffffffffffffffffff1673ffffffffffffffffffffffffffffffffffffffff1681526020019081526020016000208267ffffffffffffffff16815481106101de57fe5b90600052602060002090600202016040518060600160405290816000820160009054906101000a900467ffffffffffffffff1667ffffffffffffffff1667ffffffffffffffff1681526020016000820160089054906101000a900460ff16151515158152602001600182015481525050905060001515816020015115151461026557600080fd5b42816000015167ffffffffffffffff16101561028057600080fd5b6001600260003373ffffffffffffffffffffffffffffffffffffffff1673ffffffffffffffffffffffffffffffffffffffff1681526020019081526020016000208367ffffffffffffffff16815481106102d657fe5b906000526020600020906002020160000160086101000a81548160ff0219169083151502179055507fa6c82d83614793b1840c91aaf3d60b091437be5c718b95862c66b847674616b433838360400151604051808473ffffffffffffffffffffffffffffffffffffffff1673ffffffffffffffffffffffffffffffffffffffff1681526020018367ffffffffffffffff1667ffffffffffffffff168152602001828152602001935050505060405180910390a15050565b6000809054906101000a900473ffffffffffffffffffffffffffffffffffffffff1673ffffffffffffffffffffffffffffffffffffffff163373ffffffffffffffffffffffffffffffffffffffff1614806104355750600160009054906101000a900473ffffffffffffffffffffffffffffffffffffffff1673ffffffffffffffffffffffffffffffffffffffff163373ffffffffffffffffffffffffffffffffffffffff16145b61043e57600080fd5b61044661065c565b6201518082024201816000019067ffffffffffffffff16908167ffffffffffffffff1681525050828160400181815250506000600260008673ffffffffffffffffffffffffffffffffffffffff1673ffffffffffffffffffffffffffffffffffffffff168152602001908152602001600020805490509050600260008673ffffffffffffffffffffffffffffffffffffffff1673ffffffffffffffffffffffffffffffffffffffff168152602001908152602001600020829080600181540180825580915050906001820390600052602060002090600202016000909192909190915060008201518160000160006101000a81548167ffffffffffffffff021916908367ffffffffffffffff16021790555060208201518160000160086101000a81548160ff021916908315150217905550604082015181600101555050507f25613459597593412ee9052967f612669d1d178a3801346307f17ec9864782c4858284604001518560000151604051808573ffffffffffffffffffffffffffffffffffffffff1673ffffffffffffffffffffffffffffffffffffffff1681526020018467ffffffffffffffff1667ffffffffffffffff1681526020018381526020018267ffffffffffffffff1667ffffffffffffffff16815260200194505050505060405180910390a15050505050565b6000809054906101000a900473ffffffffffffffffffffffffffffffffffffffff1681565b6040518060600160405280600067ffffffffffffffff16815260200160001515815260200160008019168152509056fea265627a7a72315820eba521e72a483cf6f2b6d0139c3f10e70b013496fecd0dd2f576dfb4a32e53a164736f6c63430005100032",
  "source": "pragma solidity ^0.5.16;\n/// @title SmartContract zum Verwalten von Gutscheinen\ncontract Institution {\n\n    modifier onlyOwner(){\n        require((msg.sender == institution) || (msg.sender == admin) );\n        _;\n    }\n\t\n    struct Voucher {\n        uint64 expires_unixtime;\n        bool used;\n        bytes32 description;\n    }\n\n    address public institution;\n\taddress admin;\n    mapping(address => Voucher[]) voucher;\n\n    event newVoucher(address _owner, uint64 _index, bytes32 _description, uint64 expires_unixtime);\n    event redeemVoucher(address _owner, uint64 _index, bytes32 _description);\n\n    constructor(address _institution, address _admin) public{\n        institution = _institution;\n\t\tadmin = _admin;\n    }\n\n    /// @notice fuegt neuen Gutschein hinzu\n    /// @notice das Ablaufdatum wird in Tagen angegeben, Schalttage sind selber zu berechnen\n    /// @param _owner ethereum address des Gutschein Besitzers\n    /// @param _description Beschreibung des Gutscheins in hex\n    /// @param _expires_in_Days Zeit in Tagen bis der Gutschein ablaeuft\n    function addVoucher(address _owner, bytes32 _description, uint64 _expires_in_Days) onlyOwner public {\n        Voucher memory v;\n\n        v.expires_unixtime = uint64(now) + (_expires_in_Days * 1 days);\n        v.description = _description;\n        uint64 index = uint64(voucher[_owner].length);\n        voucher[_owner].push(v);\n\n        emit newVoucher(_owner, index, v.description, v.expires_unixtime);\n    }\n\n    /// @notice Funktion zum einloesen des Gutscheins\n    /// @notice nur der Besitzer des Gutscheins kann diesen einloesen\n    /// @param _index index des Gutscheins der eingeloest werden soll\n    function redeem(uint64 _index) public {\n        require(voucher[msg.sender].length > _index);\n        Voucher memory v = voucher[msg.sender][_index];\n        require(v.used == false);\n        require(v.expires_unixtime >= block.timestamp);\n\n        voucher[msg.sender][_index].used = true;\n\n        emit redeemVoucher(msg.sender, _index, v.description);\n    }\n}\n",
  "sourcePath": "C:\\Users\\maxif\\PycharmProjects\\Backend\\backend\\smart_contracts\\contracts\\Voucher.sol",
  "compiler": {
    "name": "solc",
    "version": "0.5.16+commit.9c3226ce.Emscripten.clang"
  },
  "schemaVersion": "3.2.0",
  "updatedAt": "2020-08-02T17:40:45.532Z",
  "devdoc": {
    "methods": {
      "addVoucher(address,bytes32,uint64)": {
        "params": {
          "_description": "Beschreibung des Gutscheins in hex",
          "_expires_in_Days": "Zeit in Tagen bis der Gutschein ablaeuft",
          "_owner": "ethereum address des Gutschein Besitzers"
        }
      },
      "redeem(uint64)": {
        "params": {
          "_index": "index des Gutscheins der eingeloest werden soll"
        }
      }
    },
    "title": "SmartContract zum Verwalten von Gutscheinen"
  },
  "userdoc": {
    "methods": {
      "addVoucher(address,bytes32,uint64)": {
        "notice": "fuegt neuen Gutschein hinzudas Ablaufdatum wird in Tagen angegeben, Schalttage sind selber zu berechnen"
      },
      "redeem(uint64)": {
        "notice": "Funktion zum einloesen des Gutscheinsnur der Besitzer des Gutscheins kann diesen einloesen"
      }
    }
  }
}