{
  "contractName": "Project",
  "abi": [
    {
      "inputs": [
        {
          "internalType": "address",
          "name": "_owner",
          "type": "address"
        },
        {
          "internalType": "uint8",
          "name": "_partial_payment",
          "type": "uint8"
        },
        {
          "internalType": "bytes",
          "name": "_projectTargetName",
          "type": "bytes"
        },
        {
          "internalType": "uint256",
          "name": "_projectTargetAmount",
          "type": "uint256"
        },
        {
          "internalType": "uint256",
          "name": "_minDonation",
          "type": "uint256"
        }
      ],
      "payable": false,
      "stateMutability": "nonpayable",
      "type": "constructor"
    },
    {
      "anonymous": false,
      "inputs": [
        {
          "indexed": false,
          "internalType": "bytes",
          "name": "_name",
          "type": "bytes"
        },
        {
          "indexed": false,
          "internalType": "uint256",
          "name": "_amount",
          "type": "uint256"
        }
      ],
      "name": "AddMilestone",
      "type": "event"
    },
    {
      "anonymous": false,
      "inputs": [
        {
          "indexed": false,
          "internalType": "uint256",
          "name": "amount",
          "type": "uint256"
        },
        {
          "indexed": false,
          "internalType": "uint8",
          "name": "milestoneId",
          "type": "uint8"
        },
        {
          "indexed": false,
          "internalType": "address",
          "name": "donor_add",
          "type": "address"
        },
        {
          "indexed": false,
          "internalType": "bool",
          "name": "wantsToVote",
          "type": "bool"
        }
      ],
      "name": "Donate",
      "type": "event"
    },
    {
      "anonymous": false,
      "inputs": [
        {
          "indexed": false,
          "internalType": "uint256",
          "name": "amount",
          "type": "uint256"
        }
      ],
      "name": "Donate_Light",
      "type": "event"
    },
    {
      "anonymous": false,
      "inputs": [
        {
          "indexed": false,
          "internalType": "uint8",
          "name": "milestoneId",
          "type": "uint8"
        },
        {
          "indexed": false,
          "internalType": "uint256",
          "name": "amount",
          "type": "uint256"
        }
      ],
      "name": "PayingOutAll",
      "type": "event"
    },
    {
      "anonymous": false,
      "inputs": [
        {
          "indexed": false,
          "internalType": "uint8",
          "name": "milestoneId",
          "type": "uint8"
        },
        {
          "indexed": false,
          "internalType": "uint256",
          "name": "amount",
          "type": "uint256"
        }
      ],
      "name": "PayingOutPart",
      "type": "event"
    },
    {
      "anonymous": false,
      "inputs": [
        {
          "indexed": false,
          "internalType": "uint256",
          "name": "_amount",
          "type": "uint256"
        }
      ],
      "name": "PayingOutProject",
      "type": "event"
    },
    {
      "anonymous": false,
      "inputs": [
        {
          "indexed": false,
          "internalType": "uint256",
          "name": "amount",
          "type": "uint256"
        },
        {
          "indexed": false,
          "internalType": "uint8",
          "name": "milestoneId",
          "type": "uint8"
        },
        {
          "indexed": false,
          "internalType": "address",
          "name": "donor",
          "type": "address"
        }
      ],
      "name": "Retract",
      "type": "event"
    },
    {
      "anonymous": false,
      "inputs": [
        {
          "indexed": false,
          "internalType": "uint8",
          "name": "milestoneId",
          "type": "uint8"
        },
        {
          "indexed": false,
          "internalType": "address",
          "name": "donor_add",
          "type": "address"
        },
        {
          "indexed": false,
          "internalType": "enum Project.votePosition",
          "name": "vp",
          "type": "uint8"
        }
      ],
      "name": "Vote",
      "type": "event"
    },
    {
      "constant": true,
      "inputs": [
        {
          "internalType": "address",
          "name": "",
          "type": "address"
        }
      ],
      "name": "donors",
      "outputs": [
        {
          "internalType": "uint256",
          "name": "votedMilestones",
          "type": "uint256"
        },
        {
          "internalType": "uint256",
          "name": "donated_amount",
          "type": "uint256"
        },
        {
          "internalType": "uint8",
          "name": "donated_for_milestone",
          "type": "uint8"
        },
        {
          "internalType": "bool",
          "name": "wantsToVote",
          "type": "bool"
        },
        {
          "internalType": "bool",
          "name": "exists",
          "type": "bool"
        }
      ],
      "payable": false,
      "stateMutability": "view",
      "type": "function"
    },
    {
      "constant": true,
      "inputs": [
        {
          "internalType": "uint8",
          "name": "",
          "type": "uint8"
        }
      ],
      "name": "milestones",
      "outputs": [
        {
          "internalType": "bytes",
          "name": "name",
          "type": "bytes"
        },
        {
          "internalType": "uint256",
          "name": "targetAmount",
          "type": "uint256"
        },
        {
          "internalType": "uint32",
          "name": "voteableUntil",
          "type": "uint32"
        },
        {
          "internalType": "uint32",
          "name": "positiveVotes",
          "type": "uint32"
        },
        {
          "internalType": "uint32",
          "name": "negativeVotes",
          "type": "uint32"
        },
        {
          "internalType": "bool",
          "name": "payoutPart",
          "type": "bool"
        },
        {
          "internalType": "bool",
          "name": "payoutAll",
          "type": "bool"
        }
      ],
      "payable": false,
      "stateMutability": "view",
      "type": "function"
    },
    {
      "constant": false,
      "inputs": [
        {
          "internalType": "uint8",
          "name": "milestoneId",
          "type": "uint8"
        }
      ],
      "name": "payingOutActiveMilestonePart",
      "outputs": [],
      "payable": false,
      "stateMutability": "nonpayable",
      "type": "function"
    },
    {
      "constant": false,
      "inputs": [
        {
          "internalType": "uint8",
          "name": "milestoneId",
          "type": "uint8"
        }
      ],
      "name": "payingOutActiveMilestoneAll",
      "outputs": [],
      "payable": false,
      "stateMutability": "nonpayable",
      "type": "function"
    },
    {
      "constant": false,
      "inputs": [],
      "name": "payingOutProject",
      "outputs": [],
      "payable": false,
      "stateMutability": "nonpayable",
      "type": "function"
    },
    {
      "constant": false,
      "inputs": [
        {
          "internalType": "uint8",
          "name": "milestoneId",
          "type": "uint8"
        },
        {
          "internalType": "enum Project.votePosition",
          "name": "vp",
          "type": "uint8"
        }
      ],
      "name": "vote",
      "outputs": [],
      "payable": false,
      "stateMutability": "nonpayable",
      "type": "function"
    },
    {
      "constant": false,
      "inputs": [],
      "name": "register",
      "outputs": [],
      "payable": false,
      "stateMutability": "nonpayable",
      "type": "function"
    },
    {
      "constant": false,
      "inputs": [
        {
          "internalType": "bool",
          "name": "_wantsToVote",
          "type": "bool"
        }
      ],
      "name": "donate",
      "outputs": [],
      "payable": true,
      "stateMutability": "payable",
      "type": "function"
    },
    {
      "constant": false,
      "inputs": [],
      "name": "donate_lite",
      "outputs": [],
      "payable": true,
      "stateMutability": "payable",
      "type": "function"
    },
    {
      "constant": false,
      "inputs": [],
      "name": "retract",
      "outputs": [],
      "payable": false,
      "stateMutability": "nonpayable",
      "type": "function"
    },
    {
      "constant": false,
      "inputs": [
        {
          "internalType": "bytes",
          "name": "_name",
          "type": "bytes"
        },
        {
          "internalType": "uint256",
          "name": "_targetAmount",
          "type": "uint256"
        },
        {
          "internalType": "uint32",
          "name": "_voteableUntil",
          "type": "uint32"
        }
      ],
      "name": "addMilestone",
      "outputs": [],
      "payable": false,
      "stateMutability": "nonpayable",
      "type": "function"
    }
  ],
  "bytecode": "0x60806040526000600760006101000a81548160ff021916908360ff1602179055503480156200002d57600080fd5b50604051620023ae380380620023ae833981810160405260a08110156200005357600080fd5b810190808051906020019092919080519060200190929190805160405193929190846401000000008211156200008857600080fd5b838201915060208201858111156200009f57600080fd5b8251866001820283011164010000000082111715620000bd57600080fd5b8083526020830192505050908051906020019080838360005b83811015620000f3578082015181840152602081019050620000d6565b50505050905090810190601f168015620001215780820380516001836020036101000a031916815260200191505b50604052602001805190602001909291908051906020019092919050505060648460ff16106200015057600080fd5b60008351116200015f57600080fd5b600082116200016d57600080fd5b83600760026101000a81548160ff021916908360ff160217905550604051806040016040528084815260200183815250600080820151816000019080519060200190620001bc9291906200021d565b50602082015181600101559050508060058190555084600760036101000a81548173ffffffffffffffffffffffffffffffffffffffff021916908373ffffffffffffffffffffffffffffffffffffffff1602179055505050505050620002cc565b828054600181600116156101000203166002900490600052602060002090601f016020900481019282601f106200026057805160ff191683800117855562000291565b8280016001018555821562000291579182015b828111156200029057825182559160200191906001019062000273565b5b509050620002a09190620002a4565b5090565b620002c991905b80821115620002c5576000816000905550600101620002ab565b5090565b90565b6120d280620002dc6000396000f3fe60806040526004361061009c5760003560e01c80637c1ca530116100645780637c1ca5301461024a578063bab1a5b21461032c578063ca0cdea814610336578063df49c4de146103c5578063e0aed12c14610410578063f791e1e41461044e5761009c565b8063062c8236146100a15780631aa3a008146101ae578063412fc32a146101c557806347f57b32146101f55780634e5146121461020c575b600080fd5b3480156100ad57600080fd5b506100dd600480360360208110156100c457600080fd5b81019080803560ff169060200190929190505050610465565b60405180806020018881526020018763ffffffff1663ffffffff1681526020018663ffffffff1663ffffffff1681526020018563ffffffff1663ffffffff1681526020018415151515815260200183151515158152602001828103825289818151815260200191508051906020019080838360005b8381101561016d578082015181840152602081019050610152565b50505050905090810190601f16801561019a5780820380516001836020036101000a031916815260200191505b509850505050505050505060405180910390f35b3480156101ba57600080fd5b506101c3610589565b005b6101f3600480360360208110156101db57600080fd5b81019080803515159060200190929190505050610712565b005b34801561020157600080fd5b5061020a6109f6565b005b34801561021857600080fd5b506102486004803603602081101561022f57600080fd5b81019080803560ff169060200190929190505050610ecc565b005b34801561025657600080fd5b5061032a6004803603606081101561026d57600080fd5b810190808035906020019064010000000081111561028a57600080fd5b82018360208201111561029c57600080fd5b803590602001918460018302840111640100000000831117156102be57600080fd5b91908080601f016020809104026020016040519081016040528093929190818152602001838380828437600081840152601f19601f82011690508083019250505050505050919291929080359060200190929190803563ffffffff16906020019092919050505061130c565b005b610334611622565b005b34801561034257600080fd5b506103856004803603602081101561035957600080fd5b81019080803573ffffffffffffffffffffffffffffffffffffffff16906020019092919050505061166b565b604051808681526020018581526020018460ff1660ff16815260200183151515158152602001821515151581526020019550505050505060405180910390f35b3480156103d157600080fd5b5061040e600480360360408110156103e857600080fd5b81019080803560ff169060200190929190803560ff1690602001909291905050506116c8565b005b34801561041c57600080fd5b5061044c6004803603602081101561043357600080fd5b81019080803560ff1690602001909291905050506119e3565b005b34801561045a57600080fd5b50610463611e6b565b005b6002602052806000526040600020600091509050806000018054600181600116156101000203166002900480601f0160208091040260200160405190810160405280929190818152602001828054600181600116156101000203166002900480156105115780601f106104e657610100808354040283529160200191610511565b820191906000526020600020905b8154815290600101906020018083116104f457829003601f168201915b5050505050908060010154908060020160009054906101000a900463ffffffff16908060020160049054906101000a900463ffffffff16908060020160089054906101000a900463ffffffff169080600201600c9054906101000a900460ff169080600201600d9054906101000a900460ff16905087565b600360003373ffffffffffffffffffffffffffffffffffffffff1673ffffffffffffffffffffffffffffffffffffffff16815260200190815260200160002060020160029054906101000a900460ff16156105e357600080fd5b600760039054906101000a900473ffffffffffffffffffffffffffffffffffffffff1673ffffffffffffffffffffffffffffffffffffffff163373ffffffffffffffffffffffffffffffffffffffff16141561063e57600080fd5b610646611f6f565b600181608001901515908115158152505080600360003373ffffffffffffffffffffffffffffffffffffffff1673ffffffffffffffffffffffffffffffffffffffff168152602001908152602001600020600082015181600001556020820151816001015560408201518160020160006101000a81548160ff021916908360ff16021790555060608201518160020160016101000a81548160ff02191690831515021790555060808201518160020160026101000a81548160ff02191690831515021790555090505050565b600360003373ffffffffffffffffffffffffffffffffffffffff1673ffffffffffffffffffffffffffffffffffffffff16815260200190815260200160002060020160029054906101000a900460ff1661076b57600080fd5b80156107dc5760055434101561078057600080fd5b6001600360003373ffffffffffffffffffffffffffffffffffffffff1673ffffffffffffffffffffffffffffffffffffffff16815260200190815260200160002060020160016101000a81548160ff0219169083151502179055505b600760019054906101000a900460ff1660ff16600360003373ffffffffffffffffffffffffffffffffffffffff1673ffffffffffffffffffffffffffffffffffffffff16815260200190815260200160002060020160009054906101000a900460ff1660ff1610156108fe5734600360003373ffffffffffffffffffffffffffffffffffffffff1673ffffffffffffffffffffffffffffffffffffffff16815260200190815260200160002060010181905550600760019054906101000a900460ff16600360003373ffffffffffffffffffffffffffffffffffffffff1673ffffffffffffffffffffffffffffffffffffffff16815260200190815260200160002060020160006101000a81548160ff021916908360ff16021790555061094f565b34600360003373ffffffffffffffffffffffffffffffffffffffff1673ffffffffffffffffffffffffffffffffffffffff168152602001908152602001600020600101600082825401925050819055505b346004600082825401925050819055507f273a061571f5a86c5e5f03de57b44a3ed9d3dbf5829fb75fe9c4a741f39dff9234600760019054906101000a900460ff163384604051808581526020018460ff1660ff1681526020018373ffffffffffffffffffffffffffffffffffffffff1673ffffffffffffffffffffffffffffffffffffffff1681526020018215151515815260200194505050505060405180910390a150565b6109fe611f6f565b600360003373ffffffffffffffffffffffffffffffffffffffff1673ffffffffffffffffffffffffffffffffffffffff1681526020019081526020016000206040518060a001604052908160008201548152602001600182015481526020016002820160009054906101000a900460ff1660ff1660ff1681526020016002820160019054906101000a900460ff161515151581526020016002820160029054906101000a900460ff16151515158152505090508060800151610abf57600080fd5b600760019054906101000a900460ff1660ff16816040015160ff1614610ae457600080fd5b610aec611fa5565b60026000600760019054906101000a900460ff1660ff1660ff1681526020019081526020016000206040518060e0016040529081600082018054600181600116156101000203166002900480601f016020809104026020016040519081016040528092919081815260200182805460018160011615610100020316600290048015610bb85780601f10610b8d57610100808354040283529160200191610bb8565b820191906000526020600020905b815481529060010190602001808311610b9b57829003601f168201915b50505050508152602001600182015481526020016002820160009054906101000a900463ffffffff1663ffffffff1663ffffffff1681526020016002820160049054906101000a900463ffffffff1663ffffffff1663ffffffff1681526020016002820160089054906101000a900463ffffffff1663ffffffff1663ffffffff16815260200160028201600c9054906101000a900460ff1615151515815260200160028201600d9054906101000a900460ff1615151515815250509050600015158160c00151151514610c8a57600080fd5b600454816020015111610c9c57600080fd5b42816040015163ffffffff1611610cce57806080015163ffffffff16816060015163ffffffff1610610ccd57600080fd5b5b60008160a0015115610d0a57600760029054906101000a900460ff1660ff166064846020015181610cfb57fe5b04028360200151039050610d12565b826020015190505b3373ffffffffffffffffffffffffffffffffffffffff166108fc829081150290604051600060405180830381858888f19350505050158015610d58573d6000803e3d6000fd5b507fb9f0e8a92185124eff4e6f20d82267b0c270adf01d5cacb0f1e13af3e8d0714681600760019054906101000a900460ff1633604051808481526020018360ff1660ff1681526020018273ffffffffffffffffffffffffffffffffffffffff1673ffffffffffffffffffffffffffffffffffffffff168152602001935050505060405180910390a1806004600082825403925050819055506000836040019060ff16908160ff1681525050600083602001818152505082600360003373ffffffffffffffffffffffffffffffffffffffff1673ffffffffffffffffffffffffffffffffffffffff168152602001908152602001600020600082015181600001556020820151816001015560408201518160020160006101000a81548160ff021916908360ff16021790555060608201518160020160016101000a81548160ff02191690831515021790555060808201518160020160026101000a81548160ff021916908315150217905550905050505050565b600760039054906101000a900473ffffffffffffffffffffffffffffffffffffffff1673ffffffffffffffffffffffffffffffffffffffff163373ffffffffffffffffffffffffffffffffffffffff1614610f2657600080fd5b610f2e611fa5565b600260008360ff1660ff1681526020019081526020016000206040518060e0016040529081600082018054600181600116156101000203166002900480601f016020809104026020016040519081016040528092919081815260200182805460018160011615610100020316600290048015610feb5780601f10610fc057610100808354040283529160200191610feb565b820191906000526020600020905b815481529060010190602001808311610fce57829003601f168201915b50505050508152602001600182015481526020016002820160009054906101000a900463ffffffff1663ffffffff1663ffffffff1681526020016002820160049054906101000a900463ffffffff1663ffffffff1663ffffffff1681526020016002820160089054906101000a900463ffffffff1663ffffffff1663ffffffff16815260200160028201600c9054906101000a900460ff1615151515815260200160028201600d9054906101000a900460ff1615151515815250509050600015158160c001511515146110bd57600080fd5b600454816020015111156110d057600080fd5b6000808360ff1611156110ed5760065482602001510390506110f5565b816020015190505b8160a001511561112357600760029054906101000a900460ff1660ff166064828161111c57fe5b0402810390505b4781111561112f574790505b806006600082825401925050819055503373ffffffffffffffffffffffffffffffffffffffff166108fc829081150290604051600060405180830381858888f19350505050158015611185573d6000803e3d6000fd5b5060018260c001901515908115158152505081600260008560ff1660ff16815260200190815260200160002060008201518160000190805190602001906111cd929190611ff8565b506020820151816001015560408201518160020160006101000a81548163ffffffff021916908363ffffffff16021790555060608201518160020160046101000a81548163ffffffff021916908363ffffffff16021790555060808201518160020160086101000a81548163ffffffff021916908363ffffffff16021790555060a082015181600201600c6101000a81548160ff02191690831515021790555060c082015181600201600d6101000a81548160ff0219169083151502179055509050506007600181819054906101000a900460ff168092919060010191906101000a81548160ff021916908360ff160217905550507fa7447f99755f836228eec563f62808c927b8ec3399896967427d6583b382d06b8382604051808360ff1660ff1681526020018281526020019250505060405180910390a1505050565b600760039054906101000a900473ffffffffffffffffffffffffffffffffffffffff1673ffffffffffffffffffffffffffffffffffffffff163373ffffffffffffffffffffffffffffffffffffffff161461136657600080fd5b600083511161137457600080fd5b600060010154821061138557600080fd5b6201518042018163ffffffff16101561139d57600080fd5b6000600760009054906101000a900460ff1660ff1611156113f35781600260006001600760009054906101000a900460ff160360ff1660ff16815260200190815260200160002060010154106113f257600080fd5b5b6040518060e001604052808481526020018381526020018263ffffffff168152602001600063ffffffff168152602001600063ffffffff1681526020016000151581526020016000151581525060026000600760009054906101000a900460ff1660ff1660ff1681526020019081526020016000206000820151816000019080519060200190611484929190611ff8565b506020820151816001015560408201518160020160006101000a81548163ffffffff021916908363ffffffff16021790555060608201518160020160046101000a81548163ffffffff021916908363ffffffff16021790555060808201518160020160086101000a81548163ffffffff021916908363ffffffff16021790555060a082015181600201600c6101000a81548160ff02191690831515021790555060c082015181600201600d6101000a81548160ff0219169083151502179055509050506007600081819054906101000a900460ff168092919060010191906101000a81548160ff021916908360ff160217905550507f3c28c758d37ea7acf98446e589b4e25e3b0eb5eb0ed51b4bd3c5a6a7ff713fae83836040518080602001838152602001828103825284818151815260200191508051906020019080838360005b838110156115e25780820151818401526020810190506115c7565b50505050905090810190601f16801561160f5780820380516001836020036101000a031916815260200191505b50935050505060405180910390a1505050565b346004600082825401925050819055507fc332cc0c7e97b7d2e05660b5229a80bfe5214ee12ce7d2b446ffa181b44403c1346040518082815260200191505060405180910390a1565b60036020528060005260406000206000915090508060000154908060010154908060020160009054906101000a900460ff16908060020160019054906101000a900460ff16908060020160029054906101000a900460ff16905085565b600760009054906101000a900460ff1660ff168260ff16106116e957600080fd5b42600260008460ff1660ff16815260200190815260200160002060020160009054906101000a900463ffffffff1663ffffffff161161172757600080fd5b60008260ff166001901b600360003373ffffffffffffffffffffffffffffffffffffffff1673ffffffffffffffffffffffffffffffffffffffff16815260200190815260200160002060000154161461177f57600080fd5b600360003373ffffffffffffffffffffffffffffffffffffffff1673ffffffffffffffffffffffffffffffffffffffff16815260200190815260200160002060020160019054906101000a900460ff166117d857600080fd5b600060018111156117e557fe5b8160018111156117f157fe5b141561185157600260008360ff1660ff168152602001908152602001600020600201600481819054906101000a900463ffffffff168092919060010191906101000a81548163ffffffff021916908363ffffffff160217905550506118c6565b60018081111561185d57fe5b81600181111561186957fe5b14156118c557600260008360ff1660ff168152602001908152602001600020600201600881819054906101000a900463ffffffff168092919060010191906101000a81548163ffffffff021916908363ffffffff160217905550505b5b8160ff166001901b600360003373ffffffffffffffffffffffffffffffffffffffff1673ffffffffffffffffffffffffffffffffffffffff1681526020019081526020016000206000015417600360003373ffffffffffffffffffffffffffffffffffffffff1673ffffffffffffffffffffffffffffffffffffffff168152602001908152602001600020600001819055507fa6c2cab715fddac5b4dfe1a0ae602688dec4e0c4661a7092afd583657c2963df823383604051808460ff1660ff1681526020018373ffffffffffffffffffffffffffffffffffffffff1673ffffffffffffffffffffffffffffffffffffffff1681526020018260018111156119ca57fe5b60ff168152602001935050505060405180910390a15050565b600760039054906101000a900473ffffffffffffffffffffffffffffffffffffffff1673ffffffffffffffffffffffffffffffffffffffff163373ffffffffffffffffffffffffffffffffffffffff1614611a3d57600080fd5b611a45611fa5565b600260008360ff1660ff1681526020019081526020016000206040518060e0016040529081600082018054600181600116156101000203166002900480601f016020809104026020016040519081016040528092919081815260200182805460018160011615610100020316600290048015611b025780601f10611ad757610100808354040283529160200191611b02565b820191906000526020600020905b815481529060010190602001808311611ae557829003601f168201915b50505050508152602001600182015481526020016002820160009054906101000a900463ffffffff1663ffffffff1663ffffffff1681526020016002820160049054906101000a900463ffffffff1663ffffffff1663ffffffff1681526020016002820160089054906101000a900463ffffffff1663ffffffff1663ffffffff16815260200160028201600c9054906101000a900460ff1615151515815260200160028201600d9054906101000a900460ff1615151515815250509050600015158160a00151151514611bd457600080fd5b600015158160c00151151514611be957600080fd5b42816040015163ffffffff161115611c0057600080fd5b806080015163ffffffff16816060015163ffffffff161015611c2157600080fd5b6000808360ff161115611c5c57600760029054906101000a900460ff1660ff16606460065484602001510381611c5357fe5b04029050611c82565b600760029054906101000a900460ff1660ff166064836020015181611c7d57fe5b040290505b47811115611c8e574790505b806006600082825401925050819055503373ffffffffffffffffffffffffffffffffffffffff166108fc829081150290604051600060405180830381858888f19350505050158015611ce4573d6000803e3d6000fd5b5060018260a001901515908115158152505081600260008560ff1660ff1681526020019081526020016000206000820151816000019080519060200190611d2c929190611ff8565b506020820151816001015560408201518160020160006101000a81548163ffffffff021916908363ffffffff16021790555060608201518160020160046101000a81548163ffffffff021916908363ffffffff16021790555060808201518160020160086101000a81548163ffffffff021916908363ffffffff16021790555060a082015181600201600c6101000a81548160ff02191690831515021790555060c082015181600201600d6101000a81548160ff0219169083151502179055509050506007600181819054906101000a900460ff168092919060010191906101000a81548160ff021916908360ff160217905550507fb5d311fb5d89de0330fca616b722cea31607bd140161ec5f88de41ef094f50f58382604051808360ff1660ff1681526020018281526020019250505060405180910390a1505050565b600760039054906101000a900473ffffffffffffffffffffffffffffffffffffffff1673ffffffffffffffffffffffffffffffffffffffff163373ffffffffffffffffffffffffffffffffffffffff1614611ec557600080fd5b6004546000600101541115611ed957600080fd5b6000479050806006600082825401925050819055503373ffffffffffffffffffffffffffffffffffffffff166108fc829081150290604051600060405180830381858888f19350505050158015611f34573d6000803e3d6000fd5b507f0d379b236cf182b6c99a8fa41e77bb43d93dd72afa2782dafce73904a8573c0b816040518082815260200191505060405180910390a150565b6040518060a001604052806000815260200160008152602001600060ff1681526020016000151581526020016000151581525090565b6040518060e001604052806060815260200160008152602001600063ffffffff168152602001600063ffffffff168152602001600063ffffffff1681526020016000151581526020016000151581525090565b828054600181600116156101000203166002900490600052602060002090601f016020900481019282601f1061203957805160ff1916838001178555612067565b82800160010185558215612067579182015b8281111561206657825182559160200191906001019061204b565b5b5090506120749190612078565b5090565b61209a91905b8082111561209657600081600090555060010161207e565b5090565b9056fea265627a7a72315820f42aca9be6461bd12aa4270e13756fd7a8b55bb0c7dcac4c5e69eed2554dcf4064736f6c63430005100032",
  "source": "pragma solidity ^0.5.16;\r\n/// @title SmartContract zum Verwalten von Spenden\r\ncontract Project {\r\n\r\n    modifier onlyOwner(){\r\n        require(msg.sender == owner);\r\n        _;\r\n    }\r\n\r\n    ProjectTarget projectTarget;\r\n\r\n    enum votePosition{POSITIVE_VOTE, NEGATIVE_VOTE}\r\n\r\n    mapping(uint8 => Milestone) public milestones;\r\n    mapping(address => Donor) public donors;\r\n\r\n    uint256 donated_amount;     // Insgesamt gespendeter Betrag\r\n    uint256 minDonation;        // min. gespendeter Betrag zum waehlen\r\n    uint256 already_withdrawn;\r\n    uint8 milestonesCounter = 0;\r\n    uint8 activeMilestone;\r\n    uint8 partial_payment;\r\n    address owner;\r\n\r\n    struct Milestone {\r\n        bytes name;\r\n        uint256 targetAmount;\r\n        uint32 voteableUntil;\r\n        uint32 positiveVotes;\r\n        uint32 negativeVotes;\r\n        bool payoutPart;\r\n        bool payoutAll;\r\n    }\r\n\r\n    struct ProjectTarget {\r\n        bytes name;\r\n        uint256 amount;\r\n    }\r\n\r\n    struct Donor {\r\n        uint256 votedMilestones;\r\n        uint256 donated_amount;\r\n        uint8 donated_for_milestone;\r\n        bool wantsToVote;\r\n        bool exists;\r\n    }\r\n\r\n    event PayingOutPart(uint8 milestoneId, uint256 amount);\r\n    event PayingOutAll(uint8 milestoneId, uint256 amount);\r\n    event Donate(uint256 amount, uint8 milestoneId, address donor_add, bool wantsToVote);\r\n    event Donate_Light(uint256 amount);\r\n    event Vote(uint8 milestoneId, address donor_add, votePosition vp);\r\n    event AddMilestone(bytes _name, uint256 _amount);\r\n    event PayingOutProject(uint256 _amount);\r\n    event Retract(uint256 amount, uint8 milestoneId, address donor);\r\n\r\n    /// @param _partial_payment Teilauszahlung in Prozent von 0-100\r\n    /// @param _projectTargetName Name des Projektziels in hex\r\n    /// @param _projectTargetAmount das Projektziels in Wei\r\n    /// @param _minDonation Mindestbetrag einer Spende um Stimmbereichtigt zu sein\r\n    constructor(address _owner, uint8 _partial_payment, bytes memory _projectTargetName, uint256 _projectTargetAmount, uint256 _minDonation) public {\r\n        require(_partial_payment < 100);\r\n        require(_projectTargetName.length > 0);\r\n        require(_projectTargetAmount > 0);\r\n\r\n        partial_payment = _partial_payment;\r\n        projectTarget = ProjectTarget(_projectTargetName, _projectTargetAmount);\r\n        minDonation = _minDonation;\r\n        owner = _owner;\r\n    }\r\n\r\n    /// @notice Fuert eine Teilauszahlung des Meilensteins aus,\r\n    /// @notice wenn die Abstimmzeit abgelaufen ist und mehr positive als negative Stimmen gesammelt wurden\r\n    /// @param milestoneId ID des Meilensteins der ausgezahlt werden soll\r\n    function payingOutActiveMilestonePart(uint8 milestoneId) onlyOwner public {\r\n        Milestone memory m = milestones[milestoneId];\r\n        require(m.payoutPart == false);\r\n        require(m.payoutAll == false);\r\n        require(m.voteableUntil <= block.timestamp);\r\n        require(m.positiveVotes >= m.negativeVotes);\r\n\r\n        uint256 amount;\r\n        if (milestoneId > 0) {\r\n            amount = ((m.targetAmount - already_withdrawn) / 100) * partial_payment;\r\n        } else {\r\n            amount = (m.targetAmount / 100) * partial_payment;\r\n        }\r\n\r\n        if (amount > address(this).balance) {\r\n            amount = address(this).balance;\r\n        }\r\n\r\n        already_withdrawn += amount;\r\n        msg.sender.transfer(amount);\r\n        m.payoutPart = true;\r\n\r\n        milestones[milestoneId] = m;\r\n        activeMilestone++;\r\n\r\n        emit PayingOutPart(milestoneId, amount);\r\n    }\r\n\r\n    /// @notice Fuert eine volle Auszahlung des Meilensteins aus, wenn das Spendenziel erreicht wurde\r\n    /// @param milestoneId ID des Meilensteins der ausgezahlt werden soll\r\n    function payingOutActiveMilestoneAll(uint8 milestoneId) onlyOwner public {\r\n        Milestone memory m = milestones[milestoneId];\r\n        require(m.payoutAll == false);\r\n        require(m.targetAmount <= donated_amount);\r\n\r\n        uint256 amount;\r\n        if (milestoneId > 0) {\r\n            amount = m.targetAmount - already_withdrawn;\r\n        } else {\r\n            amount = m.targetAmount;\r\n        }\r\n\r\n        if (m.payoutPart) {\r\n            amount = amount - ((amount / 100) * partial_payment);\r\n        }\r\n\r\n        if (amount > address(this).balance) {\r\n            amount = address(this).balance;\r\n        }\r\n\r\n        already_withdrawn += amount;\r\n        msg.sender.transfer(amount);\r\n        m.payoutAll = true;\r\n\r\n        milestones[milestoneId] = m;\r\n        activeMilestone++;\r\n\r\n        emit PayingOutAll(milestoneId, amount);\r\n    }\r\n\r\n    /// @notice Auszahlung der kompletten Summe bei Erreichung des Projektziels\r\n    function payingOutProject() onlyOwner public {\r\n        require(projectTarget.amount <= donated_amount);\r\n        uint256 amount = address(this).balance;\r\n\r\n        already_withdrawn += amount;\r\n        msg.sender.transfer(amount);\r\n\r\n        emit PayingOutProject(amount);\r\n    }\r\n\r\n    /// @notice Funktion zum Abstimmen ueber Meilensteine\r\n    /// @param milestoneId ID des Meilensteines ueber den abgestimmt werden soll\r\n    /// @param vp Stimme fr oder gegen den Meilentein als \"POSITIVE_VOTE\" oder  \"NEGATIVE_VOTE\"\r\n    function vote(uint8 milestoneId, votePosition vp) public {\r\n        require(milestoneId < milestonesCounter);\r\n        require(milestones[milestoneId].voteableUntil > block.timestamp);\r\n\trequire(donors[msg.sender].votedMilestones & (1 << uint256(milestoneId)) == 0);\r\n\trequire(donors[msg.sender].wantsToVote);\r\n\r\n        if (vp == votePosition.POSITIVE_VOTE) {\r\n            milestones[milestoneId].positiveVotes++;\r\n        } else if (vp == votePosition.NEGATIVE_VOTE) {\r\n            milestones[milestoneId].negativeVotes++;\r\n        }\r\n        donors[msg.sender].votedMilestones = donors[msg.sender].votedMilestones | (1 << uint256(milestoneId));\r\n\r\n        emit Vote(milestoneId, msg.sender, vp);   \r\n    }\r\n\r\n\r\n    function register() public {\r\n        require(!donors[msg.sender].exists);\r\n\trequire(msg.sender != owner);\r\n        Donor memory d;\r\n        d.exists = true;\r\n        donors[msg.sender] = d;\r\n    }\r\n\r\n    /// @notice Funktion zum Spenden\r\n    /// @notice man muss sich vor dem spenden \"registrieren\" mit der Funktion \"register()\"\r\n    /// @param _wantsToVote wenn der Spender abstimmen moechte true ansonsten false\r\n    function donate(bool _wantsToVote) payable public {\r\n        require(donors[msg.sender].exists);\r\n\r\n        if (_wantsToVote) {\r\n            require(msg.value >= minDonation);\r\n            donors[msg.sender].wantsToVote = true;\r\n        }\r\n\r\n        if (donors[msg.sender].donated_for_milestone < activeMilestone) {\r\n            donors[msg.sender].donated_amount = msg.value;\r\n            donors[msg.sender].donated_for_milestone = activeMilestone;\r\n        } else {\r\n            donors[msg.sender].donated_amount += msg.value;\r\n        }\r\n\r\n        donated_amount += msg.value;\r\n\r\n        emit Donate(msg.value, activeMilestone, msg.sender, _wantsToVote);\r\n    }\r\n\r\n    /// @notice Funktion zum Spenden ohne Moeglichkeit des zurueckziehens oder waehlens\r\n    /// @notice diese Funktion verursacht geringere Kosten und mann muss sich nicht registrieren\r\n    function donate_lite() payable public {\r\n        donated_amount += msg.value;\r\n        emit Donate_Light(msg.value);\r\n    }\r\n\r\n    /// @notice Funktion zum Zurckziehen der Spende\r\n    function retract() public {\r\n        Donor memory d = donors[msg.sender];\r\n        require(d.exists);\r\n        require(d.donated_for_milestone == activeMilestone);\r\n\r\n        Milestone memory m = milestones[activeMilestone];\r\n        require(m.payoutAll == false);\r\n        require(m.targetAmount > donated_amount);\r\n\r\n        if (m.voteableUntil <= block.timestamp) {\r\n            require(m.positiveVotes < m.negativeVotes);\r\n        }\r\n\r\n        uint256 amount;\r\n        if (m.payoutPart) {\r\n            amount = d.donated_amount - ((d.donated_amount / 100) * partial_payment);\r\n        } else {\r\n            amount = d.donated_amount;\r\n        }\r\n        msg.sender.transfer(amount);\r\n\r\n        emit Retract(amount, activeMilestone, msg.sender);\r\n\r\n        donated_amount -= amount;\r\n        d.donated_for_milestone = 0;\r\n        d.donated_amount = 0;\r\n        donors[msg.sender] = d;\r\n    }\r\n\r\n    /// @notice fuegt neue Meilensteine hinzu\r\n    /// @notice das Ziel des neuen Meilensteins darf nicht kleiner als das Ziel des letzten Meilensteins\r\n    /// @param _name Name des Meilensteins in hex\r\n    /// @param _targetAmount Spendenziel des Meilensteins\r\n    /// @param _voteableUntil Unixtime bis zu der abgestimmt werden kann\r\n    function addMilestone(bytes memory _name, uint256 _targetAmount, uint32 _voteableUntil) onlyOwner public {\r\n        require(_name.length > 0);\r\n        require(_targetAmount < projectTarget.amount);\r\n        require(_voteableUntil >= block.timestamp + 1 days);\r\n\r\n        if (milestonesCounter > 0) {\r\n            require(milestones[milestonesCounter - 1].targetAmount < _targetAmount);\r\n        }\r\n\r\n        milestones[milestonesCounter] = Milestone(_name, _targetAmount, _voteableUntil, 0, 0, false, false);\r\n        milestonesCounter++;\r\n\r\n        emit AddMilestone(_name, _targetAmount);\r\n    }\r\n}\r\n",
  "sourcePath": "C:\\Users\\TimoK\\PycharmProjects\\Backend\\backend\\smart_contracts\\contracts\\Donations.sol",
  "compiler": {
    "name": "solc",
    "version": "0.5.16+commit.9c3226ce.Emscripten.clang"
  },
  "schemaVersion": "3.2.0",
  "updatedAt": "2020-07-01T11:02:45.666Z",
  "devdoc": {
    "methods": {
      "addMilestone(bytes,uint256,uint32)": {
        "params": {
          "_name": "Name des Meilensteins in hex",
          "_targetAmount": "Spendenziel des Meilensteins",
          "_voteableUntil": "Unixtime bis zu der abgestimmt werden kann"
        }
      },
      "constructor": {
        "params": {
          "_minDonation": "Mindestbetrag einer Spende um Stimmbereichtigt zu sein",
          "_partial_payment": "Teilauszahlung in Prozent von 0-100",
          "_projectTargetAmount": "das Projektziels in Wei",
          "_projectTargetName": "Name des Projektziels in hex"
        }
      },
      "donate(bool)": {
        "params": {
          "_wantsToVote": "wenn der Spender abstimmen moechte true ansonsten false"
        }
      },
      "payingOutActiveMilestoneAll(uint8)": {
        "params": {
          "milestoneId": "ID des Meilensteins der ausgezahlt werden soll"
        }
      },
      "payingOutActiveMilestonePart(uint8)": {
        "params": {
          "milestoneId": "ID des Meilensteins der ausgezahlt werden soll"
        }
      },
      "vote(uint8,uint8)": {
        "params": {
          "milestoneId": "ID des Meilensteines ueber den abgestimmt werden soll",
          "vp": "Stimme fr oder gegen den Meilentein als \"POSITIVE_VOTE\" oder  \"NEGATIVE_VOTE\""
        }
      }
    },
    "title": "SmartContract zum Verwalten von Spenden"
  },
  "userdoc": {
    "methods": {
      "addMilestone(bytes,uint256,uint32)": {
        "notice": "fuegt neue Meilensteine hinzudas Ziel des neuen Meilensteins darf nicht kleiner als das Ziel des letzten Meilensteins"
      },
      "donate(bool)": {
        "notice": "Funktion zum Spendenman muss sich vor dem spenden \"registrieren\" mit der Funktion \"register()\""
      },
      "donate_lite()": {
        "notice": "Funktion zum Spenden ohne Moeglichkeit des zurueckziehens oder waehlensdiese Funktion verursacht geringere Kosten und mann muss sich nicht registrieren"
      },
      "payingOutActiveMilestoneAll(uint8)": {
        "notice": "Fuert eine volle Auszahlung des Meilensteins aus, wenn das Spendenziel erreicht wurde"
      },
      "payingOutActiveMilestonePart(uint8)": {
        "notice": "Fuert eine Teilauszahlung des Meilensteins aus,wenn die Abstimmzeit abgelaufen ist und mehr positive als negative Stimmen gesammelt wurden"
      },
      "payingOutProject()": {
        "notice": "Auszahlung der kompletten Summe bei Erreichung des Projektziels"
      },
      "retract()": {
        "notice": "Funktion zum Zurckziehen der Spende"
      },
      "vote(uint8,uint8)": {
        "notice": "Funktion zum Abstimmen ueber Meilensteine"
      }
    }
  }
}