{
  "contractName": "Project",
  "abi": [
    {
      "inputs": [
        {
          "internalType": "address payable",
          "name": "_owner",
          "type": "address"
        },
        {
          "internalType": "address",
          "name": "_admin",
          "type": "address"
        },
        {
          "internalType": "uint8",
          "name": "_partial_payment",
          "type": "uint8"
        },
        {
          "internalType": "bytes",
          "name": "_projectTargetName",
          "type": "bytes"
        },
        {
          "internalType": "uint256",
          "name": "_projectTargetAmount",
          "type": "uint256"
        },
        {
          "internalType": "uint256",
          "name": "_minDonation",
          "type": "uint256"
        }
      ],
      "payable": false,
      "stateMutability": "nonpayable",
      "type": "constructor"
    },
    {
      "anonymous": false,
      "inputs": [
        {
          "indexed": false,
          "internalType": "bytes",
          "name": "_name",
          "type": "bytes"
        },
        {
          "indexed": false,
          "internalType": "uint256",
          "name": "_amount",
          "type": "uint256"
        },
        {
          "indexed": false,
          "internalType": "uint8",
          "name": "milestone_id",
          "type": "uint8"
        }
      ],
      "name": "AddMilestone",
      "type": "event"
    },
    {
      "anonymous": false,
      "inputs": [
        {
          "indexed": false,
          "internalType": "uint256",
          "name": "amount",
          "type": "uint256"
        },
        {
          "indexed": false,
          "internalType": "uint8",
          "name": "milestoneId",
          "type": "uint8"
        },
        {
          "indexed": false,
          "internalType": "address",
          "name": "donor_add",
          "type": "address"
        },
        {
          "indexed": false,
          "internalType": "bool",
          "name": "wantsToVote",
          "type": "bool"
        }
      ],
      "name": "Donate",
      "type": "event"
    },
    {
      "anonymous": false,
      "inputs": [
        {
          "indexed": false,
          "internalType": "uint256",
          "name": "amount",
          "type": "uint256"
        }
      ],
      "name": "Donate_Light",
      "type": "event"
    },
    {
      "anonymous": false,
      "inputs": [
        {
          "indexed": false,
          "internalType": "uint8",
          "name": "milestoneId",
          "type": "uint8"
        },
        {
          "indexed": false,
          "internalType": "uint256",
          "name": "amount",
          "type": "uint256"
        }
      ],
      "name": "PayingOutAll",
      "type": "event"
    },
    {
      "anonymous": false,
      "inputs": [
        {
          "indexed": false,
          "internalType": "uint8",
          "name": "milestoneId",
          "type": "uint8"
        },
        {
          "indexed": false,
          "internalType": "uint256",
          "name": "amount",
          "type": "uint256"
        }
      ],
      "name": "PayingOutPart",
      "type": "event"
    },
    {
      "anonymous": false,
      "inputs": [
        {
          "indexed": false,
          "internalType": "uint256",
          "name": "_amount",
          "type": "uint256"
        }
      ],
      "name": "PayingOutProject",
      "type": "event"
    },
    {
      "anonymous": false,
      "inputs": [
        {
          "indexed": false,
          "internalType": "uint256",
          "name": "amount",
          "type": "uint256"
        },
        {
          "indexed": false,
          "internalType": "uint8",
          "name": "milestoneId",
          "type": "uint8"
        },
        {
          "indexed": false,
          "internalType": "address",
          "name": "donor",
          "type": "address"
        }
      ],
      "name": "Retract",
      "type": "event"
    },
    {
      "anonymous": false,
      "inputs": [
        {
          "indexed": false,
          "internalType": "uint8",
          "name": "milestoneId",
          "type": "uint8"
        },
        {
          "indexed": false,
          "internalType": "address",
          "name": "donor_add",
          "type": "address"
        },
        {
          "indexed": false,
          "internalType": "enum Project.votePosition",
          "name": "vp",
          "type": "uint8"
        }
      ],
      "name": "Vote",
      "type": "event"
    },
    {
      "constant": true,
      "inputs": [
        {
          "internalType": "address",
          "name": "",
          "type": "address"
        }
      ],
      "name": "donors",
      "outputs": [
        {
          "internalType": "uint256",
          "name": "votedMilestones",
          "type": "uint256"
        },
        {
          "internalType": "uint256",
          "name": "donated_amount",
          "type": "uint256"
        },
        {
          "internalType": "uint8",
          "name": "donated_for_milestone",
          "type": "uint8"
        },
        {
          "internalType": "bool",
          "name": "wantsToVote",
          "type": "bool"
        },
        {
          "internalType": "bool",
          "name": "exists",
          "type": "bool"
        }
      ],
      "payable": false,
      "stateMutability": "view",
      "type": "function"
    },
    {
      "constant": true,
      "inputs": [
        {
          "internalType": "uint8",
          "name": "",
          "type": "uint8"
        }
      ],
      "name": "milestones",
      "outputs": [
        {
          "internalType": "bytes",
          "name": "name",
          "type": "bytes"
        },
        {
          "internalType": "uint256",
          "name": "targetAmount",
          "type": "uint256"
        },
        {
          "internalType": "uint64",
          "name": "voteableUntil",
          "type": "uint64"
        },
        {
          "internalType": "uint32",
          "name": "positiveVotes",
          "type": "uint32"
        },
        {
          "internalType": "uint32",
          "name": "negativeVotes",
          "type": "uint32"
        },
        {
          "internalType": "bool",
          "name": "payoutPart",
          "type": "bool"
        },
        {
          "internalType": "bool",
          "name": "payoutAll",
          "type": "bool"
        }
      ],
      "payable": false,
      "stateMutability": "view",
      "type": "function"
    },
    {
      "constant": false,
      "inputs": [
        {
          "internalType": "uint8",
          "name": "milestoneId",
          "type": "uint8"
        }
      ],
      "name": "payingOutActiveMilestonePart",
      "outputs": [],
      "payable": false,
      "stateMutability": "nonpayable",
      "type": "function"
    },
    {
      "constant": false,
      "inputs": [
        {
          "internalType": "uint8",
          "name": "milestoneId",
          "type": "uint8"
        }
      ],
      "name": "payingOutActiveMilestoneAll",
      "outputs": [],
      "payable": false,
      "stateMutability": "nonpayable",
      "type": "function"
    },
    {
      "constant": false,
      "inputs": [],
      "name": "payingOutProject",
      "outputs": [],
      "payable": false,
      "stateMutability": "nonpayable",
      "type": "function"
    },
    {
      "constant": false,
      "inputs": [
        {
          "internalType": "uint8",
          "name": "milestoneId",
          "type": "uint8"
        },
        {
          "internalType": "enum Project.votePosition",
          "name": "vp",
          "type": "uint8"
        }
      ],
      "name": "vote",
      "outputs": [],
      "payable": false,
      "stateMutability": "nonpayable",
      "type": "function"
    },
    {
      "constant": false,
      "inputs": [],
      "name": "register",
      "outputs": [],
      "payable": false,
      "stateMutability": "nonpayable",
      "type": "function"
    },
    {
      "constant": false,
      "inputs": [
        {
          "internalType": "bool",
          "name": "_wantsToVote",
          "type": "bool"
        }
      ],
      "name": "donate",
      "outputs": [],
      "payable": true,
      "stateMutability": "payable",
      "type": "function"
    },
    {
      "constant": false,
      "inputs": [],
      "name": "donate_lite",
      "outputs": [],
      "payable": true,
      "stateMutability": "payable",
      "type": "function"
    },
    {
      "constant": false,
      "inputs": [],
      "name": "retract",
      "outputs": [],
      "payable": false,
      "stateMutability": "nonpayable",
      "type": "function"
    },
    {
      "constant": false,
      "inputs": [
        {
          "internalType": "bytes",
          "name": "_name",
          "type": "bytes"
        },
        {
          "internalType": "uint256",
          "name": "_targetAmount",
          "type": "uint256"
        },
        {
          "internalType": "uint64",
          "name": "_voteableUntil",
          "type": "uint64"
        }
      ],
      "name": "addMilestone",
      "outputs": [],
      "payable": false,
      "stateMutability": "nonpayable",
      "type": "function"
    }
  ],
  "bytecode": "0x60806040526000600760006101000a81548160ff021916908360ff1602179055503480156200002d57600080fd5b506040516200265638038062002656833981810160405260c08110156200005357600080fd5b81019080805190602001909291908051906020019092919080519060200190929190805160405193929190846401000000008211156200009257600080fd5b83820191506020820185811115620000a957600080fd5b8251866001820283011164010000000082111715620000c757600080fd5b8083526020830192505050908051906020019080838360005b83811015620000fd578082015181840152602081019050620000e0565b50505050905090810190601f1680156200012b5780820380516001836020036101000a031916815260200191505b50604052602001805190602001909291908051906020019092919050505060648460ff16106200015a57600080fd5b60008351116200016957600080fd5b600082116200017757600080fd5b83600760026101000a81548160ff021916908360ff160217905550604051806040016040528084815260200183815250600080820151816000019080519060200190620001c692919062000269565b50602082015181600101559050508060058190555085600760036101000a81548173ffffffffffffffffffffffffffffffffffffffff021916908373ffffffffffffffffffffffffffffffffffffffff16021790555084600860006101000a81548173ffffffffffffffffffffffffffffffffffffffff021916908373ffffffffffffffffffffffffffffffffffffffff16021790555050505050505062000318565b828054600181600116156101000203166002900490600052602060002090601f016020900481019282601f10620002ac57805160ff1916838001178555620002dd565b82800160010185558215620002dd579182015b82811115620002dc578251825591602001919060010190620002bf565b5b509050620002ec9190620002f0565b5090565b6200031591905b8082111562000311576000816000905550600101620002f7565b5090565b90565b61232e80620003286000396000f3fe60806040526004361061009c5760003560e01c80634e514612116100645780634e514612146102fa578063bab1a5b214610338578063ca0cdea814610342578063df49c4de146103d1578063e0aed12c1461041c578063f791e1e41461045a5761009c565b8063062c8236146100a15780631aa3a008146101b65780632a63d2e4146101cd578063412fc32a146102b357806347f57b32146102e3575b600080fd5b3480156100ad57600080fd5b506100dd600480360360208110156100c457600080fd5b81019080803560ff169060200190929190505050610471565b60405180806020018881526020018767ffffffffffffffff1667ffffffffffffffff1681526020018663ffffffff1663ffffffff1681526020018563ffffffff1663ffffffff1681526020018415151515815260200183151515158152602001828103825289818151815260200191508051906020019080838360005b8381101561017557808201518184015260208101905061015a565b50505050905090810190601f1680156101a25780820380516001836020036101000a031916815260200191505b509850505050505050505060405180910390f35b3480156101c257600080fd5b506101cb610599565b005b3480156101d957600080fd5b506102b1600480360360608110156101f057600080fd5b810190808035906020019064010000000081111561020d57600080fd5b82018360208201111561021f57600080fd5b8035906020019184600183028401116401000000008311171561024157600080fd5b91908080601f016020809104026020016040519081016040528093929190818152602001838380828437600081840152601f19601f82011690508083019250505050505050919291929080359060200190929190803567ffffffffffffffff169060200190929190505050610778565b005b6102e1600480360360208110156102c957600080fd5b81019080803515159060200190929190505050610b16565b005b3480156102ef57600080fd5b506102f8610dfa565b005b34801561030657600080fd5b506103366004803603602081101561031d57600080fd5b81019080803560ff169060200190929190505050611298565b005b610340611766565b005b34801561034e57600080fd5b506103916004803603602081101561036557600080fd5b81019080803573ffffffffffffffffffffffffffffffffffffffff1690602001909291905050506117af565b604051808681526020018581526020018460ff1660ff16815260200183151515158152602001821515151581526020019550505050505060405180910390f35b3480156103dd57600080fd5b5061041a600480360360408110156103f457600080fd5b81019080803560ff169060200190929190803560ff16906020019092919050505061180c565b005b34801561042857600080fd5b506104586004803603602081101561043f57600080fd5b81019080803560ff169060200190929190505050611b2f565b005b34801561046657600080fd5b5061046f612049565b005b6002602052806000526040600020600091509050806000018054600181600116156101000203166002900480601f01602080910402602001604051908101604052809291908181526020018280546001816001161561010002031660029004801561051d5780601f106104f25761010080835404028352916020019161051d565b820191906000526020600020905b81548152906001019060200180831161050057829003601f168201915b5050505050908060010154908060020160009054906101000a900467ffffffffffffffff16908060020160089054906101000a900463ffffffff169080600201600c9054906101000a900463ffffffff16908060020160109054906101000a900460ff16908060020160119054906101000a900460ff16905087565b600360003373ffffffffffffffffffffffffffffffffffffffff1673ffffffffffffffffffffffffffffffffffffffff16815260200190815260200160002060020160029054906101000a900460ff1661077657600760039054906101000a900473ffffffffffffffffffffffffffffffffffffffff1673ffffffffffffffffffffffffffffffffffffffff163373ffffffffffffffffffffffffffffffffffffffff16141561064857600080fd5b600860009054906101000a900473ffffffffffffffffffffffffffffffffffffffff1673ffffffffffffffffffffffffffffffffffffffff163373ffffffffffffffffffffffffffffffffffffffff1614156106a357600080fd5b6106ab6121c7565b600181608001901515908115158152505080600360003373ffffffffffffffffffffffffffffffffffffffff1673ffffffffffffffffffffffffffffffffffffffff168152602001908152602001600020600082015181600001556020820151816001015560408201518160020160006101000a81548160ff021916908360ff16021790555060608201518160020160016101000a81548160ff02191690831515021790555060808201518160020160026101000a81548160ff021916908315150217905550905050505b565b600760039054906101000a900473ffffffffffffffffffffffffffffffffffffffff1673ffffffffffffffffffffffffffffffffffffffff163373ffffffffffffffffffffffffffffffffffffffff1614806108215750600860009054906101000a900473ffffffffffffffffffffffffffffffffffffffff1673ffffffffffffffffffffffffffffffffffffffff163373ffffffffffffffffffffffffffffffffffffffff16145b61082a57600080fd5b600083511161083857600080fd5b600060010154821061084957600080fd5b6201518042018167ffffffffffffffff16101561086557600080fd5b6000600760009054906101000a900460ff1660ff1611156108bb5781600260006001600760009054906101000a900460ff160360ff1660ff16815260200190815260200160002060010154106108ba57600080fd5b5b6040518060e001604052808481526020018381526020018267ffffffffffffffff168152602001600063ffffffff168152602001600063ffffffff1681526020016000151581526020016000151581525060026000600760009054906101000a900460ff1660ff1660ff16815260200190815260200160002060008201518160000190805190602001906109509291906121fd565b506020820151816001015560408201518160020160006101000a81548167ffffffffffffffff021916908367ffffffffffffffff16021790555060608201518160020160086101000a81548163ffffffff021916908363ffffffff160217905550608082015181600201600c6101000a81548163ffffffff021916908363ffffffff16021790555060a08201518160020160106101000a81548160ff02191690831515021790555060c08201518160020160116101000a81548160ff0219169083151502179055509050506007600081819054906101000a900460ff168092919060010191906101000a81548160ff021916908360ff160217905550507f296c10f6af9e06452ffad64c921c44464c6b3730154f0b4f2fd483e62935e4b383836001600760009054906101000a900460ff160360405180806020018481526020018360ff1660ff168152602001828103825285818151815260200191508051906020019080838360005b83811015610ad5578082015181840152602081019050610aba565b50505050905090810190601f168015610b025780820380516001836020036101000a031916815260200191505b5094505050505060405180910390a1505050565b600360003373ffffffffffffffffffffffffffffffffffffffff1673ffffffffffffffffffffffffffffffffffffffff16815260200190815260200160002060020160029054906101000a900460ff16610b6f57600080fd5b8015610be057600554341015610b8457600080fd5b6001600360003373ffffffffffffffffffffffffffffffffffffffff1673ffffffffffffffffffffffffffffffffffffffff16815260200190815260200160002060020160016101000a81548160ff0219169083151502179055505b600760019054906101000a900460ff1660ff16600360003373ffffffffffffffffffffffffffffffffffffffff1673ffffffffffffffffffffffffffffffffffffffff16815260200190815260200160002060020160009054906101000a900460ff1660ff161015610d025734600360003373ffffffffffffffffffffffffffffffffffffffff1673ffffffffffffffffffffffffffffffffffffffff16815260200190815260200160002060010181905550600760019054906101000a900460ff16600360003373ffffffffffffffffffffffffffffffffffffffff1673ffffffffffffffffffffffffffffffffffffffff16815260200190815260200160002060020160006101000a81548160ff021916908360ff160217905550610d53565b34600360003373ffffffffffffffffffffffffffffffffffffffff1673ffffffffffffffffffffffffffffffffffffffff168152602001908152602001600020600101600082825401925050819055505b346004600082825401925050819055507f273a061571f5a86c5e5f03de57b44a3ed9d3dbf5829fb75fe9c4a741f39dff9234600760019054906101000a900460ff163384604051808581526020018460ff1660ff1681526020018373ffffffffffffffffffffffffffffffffffffffff1673ffffffffffffffffffffffffffffffffffffffff1681526020018215151515815260200194505050505060405180910390a150565b610e026121c7565b600360003373ffffffffffffffffffffffffffffffffffffffff1673ffffffffffffffffffffffffffffffffffffffff1681526020019081526020016000206040518060a001604052908160008201548152602001600182015481526020016002820160009054906101000a900460ff1660ff1660ff1681526020016002820160019054906101000a900460ff161515151581526020016002820160029054906101000a900460ff16151515158152505090508060800151610ec357600080fd5b600760019054906101000a900460ff1660ff16816040015160ff1614610ee857600080fd5b610ef061227d565b60026000600760019054906101000a900460ff1660ff1660ff1681526020019081526020016000206040518060e0016040529081600082018054600181600116156101000203166002900480601f016020809104026020016040519081016040528092919081815260200182805460018160011615610100020316600290048015610fbc5780601f10610f9157610100808354040283529160200191610fbc565b820191906000526020600020905b815481529060010190602001808311610f9f57829003601f168201915b50505050508152602001600182015481526020016002820160009054906101000a900467ffffffffffffffff1667ffffffffffffffff1667ffffffffffffffff1681526020016002820160089054906101000a900463ffffffff1663ffffffff1663ffffffff16815260200160028201600c9054906101000a900463ffffffff1663ffffffff1663ffffffff1681526020016002820160109054906101000a900460ff161515151581526020016002820160119054906101000a900460ff1615151515815250509050600015158160c0015115151461109a57600080fd5b6004548160200151116110ac57600080fd5b42816040015167ffffffffffffffff16116110e257806080015163ffffffff16816060015163ffffffff16106110e157600080fd5b5b60008160a001511561111e57600760029054906101000a900460ff1660ff16606484602001518161110f57fe5b04028360200151039050611126565b826020015190505b3373ffffffffffffffffffffffffffffffffffffffff166108fc829081150290604051600060405180830381858888f1935050505015801561116c573d6000803e3d6000fd5b507fb9f0e8a92185124eff4e6f20d82267b0c270adf01d5cacb0f1e13af3e8d0714681600760019054906101000a900460ff1633604051808481526020018360ff1660ff1681526020018273ffffffffffffffffffffffffffffffffffffffff1673ffffffffffffffffffffffffffffffffffffffff168152602001935050505060405180910390a180600460008282540392505081905550600360003373ffffffffffffffffffffffffffffffffffffffff1673ffffffffffffffffffffffffffffffffffffffff16815260200190815260200160002060008082016000905560018201600090556002820160006101000a81549060ff02191690556002820160016101000a81549060ff02191690556002820160026101000a81549060ff02191690555050505050565b600760039054906101000a900473ffffffffffffffffffffffffffffffffffffffff1673ffffffffffffffffffffffffffffffffffffffff163373ffffffffffffffffffffffffffffffffffffffff1614806113415750600860009054906101000a900473ffffffffffffffffffffffffffffffffffffffff1673ffffffffffffffffffffffffffffffffffffffff163373ffffffffffffffffffffffffffffffffffffffff16145b61134a57600080fd5b61135261227d565b600260008360ff1660ff1681526020019081526020016000206040518060e0016040529081600082018054600181600116156101000203166002900480601f01602080910402602001604051908101604052809291908181526020018280546001816001161561010002031660029004801561140f5780601f106113e45761010080835404028352916020019161140f565b820191906000526020600020905b8154815290600101906020018083116113f257829003601f168201915b50505050508152602001600182015481526020016002820160009054906101000a900467ffffffffffffffff1667ffffffffffffffff1667ffffffffffffffff1681526020016002820160089054906101000a900463ffffffff1663ffffffff1663ffffffff16815260200160028201600c9054906101000a900463ffffffff1663ffffffff1663ffffffff1681526020016002820160109054906101000a900460ff161515151581526020016002820160119054906101000a900460ff1615151515815250509050600015158160c001511515146114ed57600080fd5b6004548160200151111561150057600080fd5b6000808360ff16111561151d576006548260200151039050611525565b816020015190505b8160a001511561155357600760029054906101000a900460ff1660ff166064828161154c57fe5b0402810390505b4781111561155f574790505b80600660008282540192505081905550600760039054906101000a900473ffffffffffffffffffffffffffffffffffffffff1673ffffffffffffffffffffffffffffffffffffffff166108fc829081150290604051600060405180830381858888f193505050501580156115d7573d6000803e3d6000fd5b5060018260c001901515908115158152505081600260008560ff1660ff168152602001908152602001600020600082015181600001908051906020019061161f9291906121fd565b506020820151816001015560408201518160020160006101000a81548167ffffffffffffffff021916908367ffffffffffffffff16021790555060608201518160020160086101000a81548163ffffffff021916908363ffffffff160217905550608082015181600201600c6101000a81548163ffffffff021916908363ffffffff16021790555060a08201518160020160106101000a81548160ff02191690831515021790555060c08201518160020160116101000a81548160ff0219169083151502179055509050506007600181819054906101000a900460ff168092919060010191906101000a81548160ff021916908360ff160217905550507fa7447f99755f836228eec563f62808c927b8ec3399896967427d6583b382d06b8382604051808360ff1660ff1681526020018281526020019250505060405180910390a1505050565b346004600082825401925050819055507fc332cc0c7e97b7d2e05660b5229a80bfe5214ee12ce7d2b446ffa181b44403c1346040518082815260200191505060405180910390a1565b60036020528060005260406000206000915090508060000154908060010154908060020160009054906101000a900460ff16908060020160019054906101000a900460ff16908060020160029054906101000a900460ff16905085565b600760009054906101000a900460ff1660ff168260ff161061182d57600080fd5b42600260008460ff1660ff16815260200190815260200160002060020160009054906101000a900467ffffffffffffffff1667ffffffffffffffff161161187357600080fd5b60008260ff166001901b600360003373ffffffffffffffffffffffffffffffffffffffff1673ffffffffffffffffffffffffffffffffffffffff1681526020019081526020016000206000015416146118cb57600080fd5b600360003373ffffffffffffffffffffffffffffffffffffffff1673ffffffffffffffffffffffffffffffffffffffff16815260200190815260200160002060020160019054906101000a900460ff1661192457600080fd5b6000600181111561193157fe5b81600181111561193d57fe5b141561199d57600260008360ff1660ff168152602001908152602001600020600201600881819054906101000a900463ffffffff168092919060010191906101000a81548163ffffffff021916908363ffffffff16021790555050611a12565b6001808111156119a957fe5b8160018111156119b557fe5b1415611a1157600260008360ff1660ff168152602001908152602001600020600201600c81819054906101000a900463ffffffff168092919060010191906101000a81548163ffffffff021916908363ffffffff160217905550505b5b8160ff166001901b600360003373ffffffffffffffffffffffffffffffffffffffff1673ffffffffffffffffffffffffffffffffffffffff1681526020019081526020016000206000015417600360003373ffffffffffffffffffffffffffffffffffffffff1673ffffffffffffffffffffffffffffffffffffffff168152602001908152602001600020600001819055507fa6c2cab715fddac5b4dfe1a0ae602688dec4e0c4661a7092afd583657c2963df823383604051808460ff1660ff1681526020018373ffffffffffffffffffffffffffffffffffffffff1673ffffffffffffffffffffffffffffffffffffffff168152602001826001811115611b1657fe5b60ff168152602001935050505060405180910390a15050565b600760039054906101000a900473ffffffffffffffffffffffffffffffffffffffff1673ffffffffffffffffffffffffffffffffffffffff163373ffffffffffffffffffffffffffffffffffffffff161480611bd85750600860009054906101000a900473ffffffffffffffffffffffffffffffffffffffff1673ffffffffffffffffffffffffffffffffffffffff163373ffffffffffffffffffffffffffffffffffffffff16145b611be157600080fd5b611be961227d565b600260008360ff1660ff1681526020019081526020016000206040518060e0016040529081600082018054600181600116156101000203166002900480601f016020809104026020016040519081016040528092919081815260200182805460018160011615610100020316600290048015611ca65780601f10611c7b57610100808354040283529160200191611ca6565b820191906000526020600020905b815481529060010190602001808311611c8957829003601f168201915b50505050508152602001600182015481526020016002820160009054906101000a900467ffffffffffffffff1667ffffffffffffffff1667ffffffffffffffff1681526020016002820160089054906101000a900463ffffffff1663ffffffff1663ffffffff16815260200160028201600c9054906101000a900463ffffffff1663ffffffff1663ffffffff1681526020016002820160109054906101000a900460ff161515151581526020016002820160119054906101000a900460ff1615151515815250509050600015158160a00151151514611d8457600080fd5b600015158160c00151151514611d9957600080fd5b42816040015167ffffffffffffffff161115611db457600080fd5b806080015163ffffffff16816060015163ffffffff161015611dd557600080fd5b6000808360ff161115611e1057600760029054906101000a900460ff1660ff16606460065484602001510381611e0757fe5b04029050611e36565b600760029054906101000a900460ff1660ff166064836020015181611e3157fe5b040290505b47811115611e42574790505b80600660008282540192505081905550600760039054906101000a900473ffffffffffffffffffffffffffffffffffffffff1673ffffffffffffffffffffffffffffffffffffffff166108fc829081150290604051600060405180830381858888f19350505050158015611eba573d6000803e3d6000fd5b5060018260a001901515908115158152505081600260008560ff1660ff1681526020019081526020016000206000820151816000019080519060200190611f029291906121fd565b506020820151816001015560408201518160020160006101000a81548167ffffffffffffffff021916908367ffffffffffffffff16021790555060608201518160020160086101000a81548163ffffffff021916908363ffffffff160217905550608082015181600201600c6101000a81548163ffffffff021916908363ffffffff16021790555060a08201518160020160106101000a81548160ff02191690831515021790555060c08201518160020160116101000a81548160ff0219169083151502179055509050506007600181819054906101000a900460ff168092919060010191906101000a81548160ff021916908360ff160217905550507fb5d311fb5d89de0330fca616b722cea31607bd140161ec5f88de41ef094f50f58382604051808360ff1660ff1681526020018281526020019250505060405180910390a1505050565b600760039054906101000a900473ffffffffffffffffffffffffffffffffffffffff1673ffffffffffffffffffffffffffffffffffffffff163373ffffffffffffffffffffffffffffffffffffffff1614806120f25750600860009054906101000a900473ffffffffffffffffffffffffffffffffffffffff1673ffffffffffffffffffffffffffffffffffffffff163373ffffffffffffffffffffffffffffffffffffffff16145b6120fb57600080fd5b600454600060010154111561210f57600080fd5b600047905080600660008282540192505081905550600760039054906101000a900473ffffffffffffffffffffffffffffffffffffffff1673ffffffffffffffffffffffffffffffffffffffff166108fc829081150290604051600060405180830381858888f1935050505015801561218c573d6000803e3d6000fd5b507f0d379b236cf182b6c99a8fa41e77bb43d93dd72afa2782dafce73904a8573c0b816040518082815260200191505060405180910390a150565b6040518060a001604052806000815260200160008152602001600060ff1681526020016000151581526020016000151581525090565b828054600181600116156101000203166002900490600052602060002090601f016020900481019282601f1061223e57805160ff191683800117855561226c565b8280016001018555821561226c579182015b8281111561226b578251825591602001919060010190612250565b5b50905061227991906122d4565b5090565b6040518060e001604052806060815260200160008152602001600067ffffffffffffffff168152602001600063ffffffff168152602001600063ffffffff1681526020016000151581526020016000151581525090565b6122f691905b808211156122f25760008160009055506001016122da565b5090565b9056fea265627a7a7231582034e06bb253a7f453352f056c84ebdd264414b0a457e3805f62638cb0aaf8ac5f64736f6c63430005100032",
  "source": "pragma solidity ^0.5.16;\n/// @title SmartContract zum Verwalten von Spenden\ncontract Project {\n\n    modifier onlyOwner(){\n        require((msg.sender == owner) || (msg.sender == admin) );\n        _;\n    }\n\n    ProjectTarget projectTarget;\n\n    enum votePosition{POSITIVE_VOTE, NEGATIVE_VOTE}\n\n    mapping(uint8 => Milestone) public milestones;\n    mapping(address => Donor) public donors;\n\n    uint256 donated_amount;     // Insgesamt gespendeter Betrag\n    uint256 minDonation;        // min. gespendeter Betrag zum waehlen\n    uint256 already_withdrawn;\n    uint8 milestonesCounter = 0;\n    uint8 activeMilestone;\n    uint8 partial_payment;\n    address payable owner;\n    address admin;\n\n    struct Milestone {\n        bytes name;\n        uint256 targetAmount;\n        uint64 voteableUntil;\n        uint32 positiveVotes;\n        uint32 negativeVotes;\n        bool payoutPart;\n        bool payoutAll;\n    }\n\n    struct ProjectTarget {\n        bytes name;\n        uint256 amount;\n    }\n\n    struct Donor {\n        uint256 votedMilestones;\n        uint256 donated_amount;\n        uint8 donated_for_milestone;\n        bool wantsToVote;\n        bool exists;\n    }\n\n    event PayingOutPart(uint8 milestoneId, uint256 amount);\n    event PayingOutAll(uint8 milestoneId, uint256 amount);\n    event Donate(uint256 amount, uint8 milestoneId, address donor_add, bool wantsToVote);\n    event Donate_Light(uint256 amount);\n    event Vote(uint8 milestoneId, address donor_add, votePosition vp);\n    event AddMilestone(bytes _name, uint256 _amount, uint8 milestone_id);\n    event PayingOutProject(uint256 _amount);\n    event Retract(uint256 amount, uint8 milestoneId, address donor);\n\n    /// @param _owner Addresse der Institution an die das Geld ausgezahlt werden soll\n    /// @param _admin Addresse eines weiteren Kontos das alle Funktionen aufrufen kann selber aber kein Geld bekommen kann\n    /// @param _partial_payment Teilauszahlung in Prozent von 0-100\n    /// @param _projectTargetName Name des Projektziels in hex\n    /// @param _projectTargetAmount das Projektziels in Wei\n    /// @param _minDonation Mindestbetrag einer Spende um Stimmbereichtigt zu sein\n    constructor(address payable _owner, address _admin, uint8 _partial_payment, bytes memory _projectTargetName, uint256 _projectTargetAmount, uint256 _minDonation) public {\n        require(_partial_payment < 100);\n        require(_projectTargetName.length > 0);\n        require(_projectTargetAmount > 0);\n\n        partial_payment = _partial_payment;\n        projectTarget = ProjectTarget(_projectTargetName, _projectTargetAmount);\n        minDonation = _minDonation;\n        owner = _owner;\n        admin = _admin;\n    }\n\n    /// @notice Fuert eine Teilauszahlung des Meilensteins aus,\n    /// @notice wenn die Abstimmzeit abgelaufen ist und mehr positive als negative Stimmen gesammelt wurden\n    /// @param milestoneId ID des Meilensteins der ausgezahlt werden soll\n    function payingOutActiveMilestonePart(uint8 milestoneId) onlyOwner public {\n        Milestone memory m = milestones[milestoneId];\n        require(m.payoutPart == false);\n        require(m.payoutAll == false);\n        require(m.voteableUntil <= block.timestamp);\n        require(m.positiveVotes >= m.negativeVotes);\n\n        uint256 amount;\n        if (milestoneId > 0) {\n            amount = ((m.targetAmount - already_withdrawn) / 100) * partial_payment;\n        } else {\n            amount = (m.targetAmount / 100) * partial_payment;\n        }\n\n        if (amount > address(this).balance) {\n            amount = address(this).balance;\n        }\n\n        already_withdrawn += amount;\n        owner.transfer(amount);\n        m.payoutPart = true;\n\n        milestones[milestoneId] = m;\n        activeMilestone++;\n\n        emit PayingOutPart(milestoneId, amount);\n    }\n\n    /// @notice Fuert eine volle Auszahlung des Meilensteins aus, wenn das Spendenziel erreicht wurde\n    /// @param milestoneId ID des Meilensteins der ausgezahlt werden soll\n    function payingOutActiveMilestoneAll(uint8 milestoneId) onlyOwner public {\n        Milestone memory m = milestones[milestoneId];\n        require(m.payoutAll == false);\n        require(m.targetAmount <= donated_amount);\n\n        uint256 amount;\n        if (milestoneId > 0) {\n            amount = m.targetAmount - already_withdrawn;\n        } else {\n            amount = m.targetAmount;\n        }\n\n        if (m.payoutPart) {\n            amount = amount - ((amount / 100) * partial_payment);\n        }\n\n        if (amount > address(this).balance) {\n            amount = address(this).balance;\n        }\n\n        already_withdrawn += amount;\n        owner.transfer(amount);\n        m.payoutAll = true;\n\n        milestones[milestoneId] = m;\n        activeMilestone++;\n\n        emit PayingOutAll(milestoneId, amount);\n    }\n\n    /// @notice Auszahlung der kompletten Summe bei Erreichung des Projektziels\n    function payingOutProject() onlyOwner public {\n        require(projectTarget.amount <= donated_amount);\n        uint256 amount = address(this).balance;\n\n        already_withdrawn += amount;\n        owner.transfer(amount);\n\n        emit PayingOutProject(amount);\n    }\n\n    /// @notice Funktion zum Abstimmen ueber Meilensteine\n    /// @param milestoneId ID des Meilensteines ueber den abgestimmt werden soll\n    /// @param vp Stimme fr oder gegen den Meilentein als \"POSITIVE_VOTE\" oder  \"NEGATIVE_VOTE\"\n    function vote(uint8 milestoneId, votePosition vp) public {\n        require(milestoneId < milestonesCounter);\n        require(milestones[milestoneId].voteableUntil > block.timestamp);\n\trequire(donors[msg.sender].votedMilestones & (1 << uint256(milestoneId)) == 0);\n\trequire(donors[msg.sender].wantsToVote);\n\n        if (vp == votePosition.POSITIVE_VOTE) {\n            milestones[milestoneId].positiveVotes++;\n        } else if (vp == votePosition.NEGATIVE_VOTE) {\n            milestones[milestoneId].negativeVotes++;\n        }\n        donors[msg.sender].votedMilestones = donors[msg.sender].votedMilestones | (1 << uint256(milestoneId));\n\n        emit Vote(milestoneId, msg.sender, vp);   \n    }\n\n\n    function register() public {\n        if (!donors[msg.sender].exists) {\n            require(msg.sender != owner);\n            require(msg.sender != admin);\n            Donor memory d;\n            d.exists = true;\n            donors[msg.sender] = d;\n        }\n    }\n\n    /// @notice Funktion zum Spenden\n    /// @notice man muss sich vor dem spenden \"registrieren\" mit der Funktion \"register()\"\n    /// @param _wantsToVote wenn der Spender abstimmen moechte true ansonsten false\n    function donate(bool _wantsToVote) payable public {\n        require(donors[msg.sender].exists);\n\n        if (_wantsToVote) {\n            require(msg.value >= minDonation);\n            donors[msg.sender].wantsToVote = true;\n        }\n\n        if (donors[msg.sender].donated_for_milestone < activeMilestone) {\n            donors[msg.sender].donated_amount = msg.value;\n            donors[msg.sender].donated_for_milestone = activeMilestone;\n        } else {\n            donors[msg.sender].donated_amount += msg.value;\n        }\n\n        donated_amount += msg.value;\n\n        emit Donate(msg.value, activeMilestone, msg.sender, _wantsToVote);\n    }\n\n    /// @notice Funktion zum Spenden ohne Moeglichkeit des zurueckziehens oder waehlens\n    /// @notice diese Funktion verursacht geringere Kosten und mann muss sich nicht registrieren\n    function donate_lite() payable public {\n        donated_amount += msg.value;\n        emit Donate_Light(msg.value);\n    }\n\n    /// @notice Funktion zum Zurckziehen der Spende\n    function retract() public {\n        Donor memory d = donors[msg.sender];\n        require(d.exists);\n        require(d.donated_for_milestone == activeMilestone);\n\n        Milestone memory m = milestones[activeMilestone];\n        require(m.payoutAll == false);\n        require(m.targetAmount > donated_amount);\n\n        if (m.voteableUntil <= block.timestamp) {\n            require(m.positiveVotes < m.negativeVotes);\n        }\n\n        uint256 amount;\n        if (m.payoutPart) {\n            amount = d.donated_amount - ((d.donated_amount / 100) * partial_payment);\n        } else {\n            amount = d.donated_amount;\n        }\n        msg.sender.transfer(amount);\n\n        emit Retract(amount, activeMilestone, msg.sender);\n\n        donated_amount -= amount;\n//        d.donated_for_milestone = 0;\n//        d.donated_amount = 0;\n//        donors[msg.sender] = d;\n        delete donors[msg.sender];\n    }\n\n    /// @notice fuegt neue Meilensteine hinzu\n    /// @notice das Ziel des neuen Meilensteins darf nicht kleiner als das Ziel des letzten Meilensteins\n    /// @param _name Name des Meilensteins in hex\n    /// @param _targetAmount Spendenziel des Meilensteins\n    /// @param _voteableUntil Unixtime bis zu der abgestimmt werden kann\n    function addMilestone(bytes memory _name, uint256 _targetAmount, uint64 _voteableUntil) onlyOwner public {\n        require(_name.length > 0);\n        require(_targetAmount < projectTarget.amount);\n        require(_voteableUntil >= block.timestamp + 1 days);\n\n        if (milestonesCounter > 0) {\n            require(milestones[milestonesCounter - 1].targetAmount < _targetAmount);\n        }\n\n        milestones[milestonesCounter] = Milestone(_name, _targetAmount, _voteableUntil, 0, 0, false, false);\n        milestonesCounter++;\n\n        emit AddMilestone(_name, _targetAmount, milestonesCounter - 1);\n    }\n}\n",
  "sourcePath": "C:\\Users\\maxif\\PycharmProjects\\Backend\\backend\\smart_contracts\\contracts\\Donations.sol",
  "compiler": {
    "name": "solc",
    "version": "0.5.16+commit.9c3226ce.Emscripten.clang"
  },
  "schemaVersion": "3.2.0",
  "updatedAt": "2020-08-03T12:43:49.442Z",
  "devdoc": {
    "methods": {
      "addMilestone(bytes,uint256,uint64)": {
        "params": {
          "_name": "Name des Meilensteins in hex",
          "_targetAmount": "Spendenziel des Meilensteins",
          "_voteableUntil": "Unixtime bis zu der abgestimmt werden kann"
        }
      },
      "constructor": {
        "params": {
          "_admin": "Addresse eines weiteren Kontos das alle Funktionen aufrufen kann selber aber kein Geld bekommen kann",
          "_minDonation": "Mindestbetrag einer Spende um Stimmbereichtigt zu sein",
          "_owner": "Addresse der Institution an die das Geld ausgezahlt werden soll",
          "_partial_payment": "Teilauszahlung in Prozent von 0-100",
          "_projectTargetAmount": "das Projektziels in Wei",
          "_projectTargetName": "Name des Projektziels in hex"
        }
      },
      "donate(bool)": {
        "params": {
          "_wantsToVote": "wenn der Spender abstimmen moechte true ansonsten false"
        }
      },
      "payingOutActiveMilestoneAll(uint8)": {
        "params": {
          "milestoneId": "ID des Meilensteins der ausgezahlt werden soll"
        }
      },
      "payingOutActiveMilestonePart(uint8)": {
        "params": {
          "milestoneId": "ID des Meilensteins der ausgezahlt werden soll"
        }
      },
      "vote(uint8,uint8)": {
        "params": {
          "milestoneId": "ID des Meilensteines ueber den abgestimmt werden soll",
          "vp": "Stimme fr oder gegen den Meilentein als \"POSITIVE_VOTE\" oder  \"NEGATIVE_VOTE\""
        }
      }
    },
    "title": "SmartContract zum Verwalten von Spenden"
  },
  "userdoc": {
    "methods": {
      "addMilestone(bytes,uint256,uint64)": {
        "notice": "fuegt neue Meilensteine hinzudas Ziel des neuen Meilensteins darf nicht kleiner als das Ziel des letzten Meilensteins"
      },
      "donate(bool)": {
        "notice": "Funktion zum Spendenman muss sich vor dem spenden \"registrieren\" mit der Funktion \"register()\""
      },
      "donate_lite()": {
        "notice": "Funktion zum Spenden ohne Moeglichkeit des zurueckziehens oder waehlensdiese Funktion verursacht geringere Kosten und mann muss sich nicht registrieren"
      },
      "payingOutActiveMilestoneAll(uint8)": {
        "notice": "Fuert eine volle Auszahlung des Meilensteins aus, wenn das Spendenziel erreicht wurde"
      },
      "payingOutActiveMilestonePart(uint8)": {
        "notice": "Fuert eine Teilauszahlung des Meilensteins aus,wenn die Abstimmzeit abgelaufen ist und mehr positive als negative Stimmen gesammelt wurden"
      },
      "payingOutProject()": {
        "notice": "Auszahlung der kompletten Summe bei Erreichung des Projektziels"
      },
      "retract()": {
        "notice": "Funktion zum Zurckziehen der Spende"
      },
      "vote(uint8,uint8)": {
        "notice": "Funktion zum Abstimmen ueber Meilensteine"
      }
    }
  }
}